:100000000C9472000C9486000C9486000C9486006C
:100010000C9486000C9486000C9486000C94860048
:100020000C9486000C9486000C9486000C94860038
:100030000C9486000C9422030C943A030C94E60270
:100040000C9486000C9486000C9486000C94860018
:100050000C9486000C9480020C9497020C94480235
:100060000C9486000C9486000C9486000C948600F8
:100070000C9486000C9486000C9486000C948600E8
:100080000C9486000C9486000C9486000C948600D8
:100090000C9486000C9486000C9486000C948600C8
:1000A0000C9486000C9486000C9486000C948600B8
:1000B0000C9486000C9486000C9486000C948600A8
:1000C0000C9486000C9486000C9486000C94860098
:1000D0000C9486000C9486000C9486000C94860088
:1000E0000C94860011241FBECFEFD1E2DEBFCDBF3E
:1000F00000E00CBF22E0A0E0B2E001C01D92A830F9
:10010000B207E1F70E9412020C94BA030C940000AB
:1001100010922001E1E2F1E0808181608083089506
:100120000E94AE020E9452030E948800279A2F98D4
:100130000895D09B0BC081E08ABB8091060290910C
:100140000702019690930702809306020895CF93C9
:10015000DF93C82FD92F2F9883E290E00E94C80226
:1001600088E290E00E94700320910602309107021D
:10017000CE01992354F0959587959595879582178B
:1001800093072CF0DF91CF9108950396F4CF80E090
:1001900090E00E94C80280E090E00E94700380918D
:1001A0000002909101020196909301028093000257
:1001B000E9CF8091040290910502892BE1F08091B2
:1001C000040290910502019779F1809104029091C7
:1001D0000502029709F442C0809104029091050241
:1001E000039709F455C08091040290910502049789
:1001F00009F462C0089580E090E00E94C80280E0A7
:1002000090E00E94700380910602909107028B3665
:100210009140ACF281E090E090930502809304025B
:1002200010920702109206022F9A80E090E00E943E
:10023000C80288E290E00E947003809106029091CB
:1002400007028B3691400CF282E090E09093050219
:1002500080930402109207021092060283E290E05B
:100260000E94C80288E290E00E947003809106021A
:10027000909107028F3591400CF4AECF83E090E06F
:1002800090930502809304021092070210920602D6
:1002900080E090E00E94C80288E290E00E94700333
:1002A00080910602909107028F3591400CF49BCF0C
:1002B0001092070210920602109205021092040298
:1002C00080E090E00E94C80280E090E00E9470030D
:1002D0008091000290910102019690930102809317
:1002E0000002109207021092060284CF809102024F
:1002F00090910302892BE1F0809102029091030218
:10030000019779F18091020290910302029709F41A
:1003100041C08091020290910302039709F454C0F6
:100320008091020290910302049709F461C008953C
:1003300080E090E00E94C80280E090E00E9470039C
:1003400080910602909107028B369140ACF281E0D9
:1003500090E09093030280930202109207021092A1
:10036000060288E290E00E94C80280E090E00E94CD
:10037000700380910602909107028B36914014F22F
:1003800082E090E0909303028093020210920702B1
:100390001092060288E290E00E94C80283E290E098
:1003A0000E94700380910602909107028F35914060
:1003B0000CF4AFCF83E090E09093030280930202AD
:1003C000109207021092060288E290E00E94C80292
:1003D00080E090E00E9470038091060290910702F5
:1003E0008F3591400CF49CCF1092070210920602B8
:1003F000109203021092020280E090E00E94C80274
:1004000080E090E00E9470038091000290910102D0
:1004100001969093010280930002109207021092BD
:10042000060285CF0E9490002FEF89E698E12150C7
:1004300080409040E1F700C0000012C080910002AF
:10044000909101020197C9F0809100029091010200
:100450000297B1F080910002909101020397A9F0F8
:100460000E9499008091000290910102892B31F73E
:1004700080ED97E00E94A700E1CF0E94D900E4CF71
:1004800088E893E10E94A700E5CF0E947601E8CFBB
:100490001F921FB61F9211248F938BB78F93EF93E8
:1004A000FF9387B581110CC088B5811109C0EBE0BD
:1004B000F1E080818E7F808380818D7F80830BC07F
:1004C00087B5882389F0EBE0F1E080818D7F808320
:1004D000808181608083FF91EF918F918BBF8F919D
:1004E0001F901FBE1F90189588B58823A1F3EBE0DD
:1004F000F1E080818E7F8083808182608083EBCF7A
:100500008F938FB78F938BB78F93EF93FF9387B5AD
:100510008F3F29F0EBE0F1E080818E7F8083FF91B7
:10052000EF918F918BBF8F918FBF8F9118958F9384
:100530008FB78F938BB78F93EF93FF9388B58F3FD0
:1005400029F0EBE0F1E080818D7F8083FF91EF91D6
:100550008F918BBF8F918FBF8F911895EAE0F1E05B
:10056000808181608083808182608083EBE0F1E024
:1005700080818E7F808380818D7F808314BC83E027
:1005800085BD17BC18BC87E080936E0078940895F1
:1005900094E6980F993CC8F4882364F018BC282F7F
:1005A0003FEF2303C001112464E670E00E94920330
:1005B00067BD089517BC282F3FEF2303C001112406
:1005C0006CE97FEF0E94920368BD08951F921FB6E9
:1005D0001F9211248F938BB78F93EF93FF9380918A
:1005E000B30081110DC08091B400811109C0EBE00E
:1005F000F1E080818B7F80838081877F80830CC046
:100600008091B300882389F0EBE0F1E08081877F5F
:100610008083808184608083FF91EF918F918BBF75
:100620008F911F901FBE1F9018958091B400882352
:1006300099F3EBE0F1E080818B7F8083808188609B
:100640008083EACF8F938FB78F938BB78F93EF937E
:10065000FF938091B3008F3F29F0EBE0F1E08081C0
:100660008B7F8083FF91EF918F918BBF8F918FBF95
:100670008F9118958F938FB78F938BB78F93EF933D
:10068000FF938091B4008F3F29F0EBE0F1E080818F
:10069000877F8083FF91EF918F918BBF8F918FBF69
:1006A0008F911895EAE0F1E08081846080838081F9
:1006B00088608083EBE0F1E080818B7F80838081A4
:1006C000877F80831092B00083E08093B100109206
:1006D000B3001092B40087E080937000789408957E
:1006E00094E6980F993CE8F4882374F01092B400D3
:1006F000282F3FEF2303C001112464E670E00E941D
:1007000092036093B30008951092B300282F3FEF37
:100710002303C00111246CE97FEF0E9492036093D0
:10072000B400089597FB072E16F4009407D077FDC8
:1007300009D00E94A60307FC05D03EF49095819550
:100740009F4F0895709561957F4F0895AA1BBB1B1D
:1007500051E107C0AA1FBB1FA617B70710F0A61BC1
:10076000B70B881F991F5A95A9F780959095BC01E2
:08077000CD010895F894FFCFBC
:00000001FF
