:100000000C9477000C9498000C9498000C94980031
:100010000C9498000C9498000C9498000C94980000
:100020000C9498000C9498000C9498000C949800F0
:100030000C9498000C94BD010C94D5010C94810192
:100040000C9498000C9498000C9498000C949800D0
:100050000C9484020C941B010C9432010C94E30068
:100060000C9498000C9498000C9498000C949800B0
:100070000C9498000C9498000C9498000C949800A0
:100080000C9498000C9498000C9498000C94980090
:100090000C9498000C9498000C9498000C94980080
:1000A0000C9498000C9498000C9498000C94980070
:1000B0000C9498000C9498000C9498000C94980060
:1000C0000C9498000C9498000C9498000C94980050
:1000D0000C9498000C9498000C9498000C94980040
:1000E0000C9498003F065B4F666D7D077F6F11246F
:1000F0001FBECFEFD1E2DEBFCDBF00E00CBF12E0EC
:10010000A0E0B2E0E2EFF7E000E00BBF02C0079032
:100110000D92A230B107D9F722E0A2E0B2E001C00F
:100120001D92A430B207E1F70E94A4000C94F703DB
:100130000C9400000E942D020E9479020E94490145
:100140000E94ED01789408950E949A00C2E3D0E0E5
:100150000F2EF8E7EF2EF12CF02D0EE610E019C06F
:1001600021970E9474021EC021960E9474021AC038
:1001700080E090E00E94630180E00E940B0209C0D1
:10018000C8018C1B9D0B0E9463018C2F825E0E9414
:100190000B020E946F02282F30E0813009F32230D9
:1001A000310511F3C233D10519F354F7C233D10528
:1001B00084F7C7018C1B9D0B0E9463018C2F8C5E02
:1001C0000E940B02E6CF1F921FB61F9211248F933D
:1001D0008BB78F93EF93FF9387B581110CC088B5D0
:1001E000811109C0EBE0F1E080818E7F8083808106
:1001F0008D7F80830BC087B5882389F0EBE0F1E029
:1002000080818D7F8083808181608083FF91EF91E9
:100210008F918BBF8F911F901FBE1F90189588B52F
:100220008823A1F3EBE0F1E080818E7F80838081E1
:1002300082608083EBCF8F938FB78F938BB78F9331
:10024000EF93FF9387B58F3F29F0EBE0F1E08081DA
:100250008E7F8083FF91EF918F918BBF8F918FBFA6
:100260008F9118958F938FB78F938BB78F93EF9351
:10027000FF9388B58F3F29F0EBE0F1E080818D7F1F
:100280008083FF91EF918F918BBF8F918FBF8F9163
:100290001895EAE0F1E0808181608083808182604E
:1002A0008083EBE0F1E080818E7F808380818D7F91
:1002B000808314BC83E085BD17BC18BC87E08093A5
:1002C0006E007894089594E6980F993CC8F48823BA
:1002D00064F018BC282F3FEF2303C001112464E60B
:1002E00070E00E94C00367BD089517BC282F3FEF40
:1002F0002303C00111246CE97FEF0E94C00368BD95
:1003000008951F921FB61F9211248F938BB78F935E
:10031000EF93FF938091B30081110DC08091B400E1
:10032000811109C0EBE0F1E080818B7F80838081C7
:10033000877F80830CC08091B300882389F0EBE035
:10034000F1E08081877F8083808184608083FF915A
:10035000EF918F918BBF8F911F901FBE1F901895AB
:100360008091B400882399F3EBE0F1E080818B7FEA
:100370008083808188608083EACF8F938FB78F934B
:100380008BB78F93EF93FF938091B3008F3F29F04A
:10039000EBE0F1E080818B7F8083FF91EF918F9183
:1003A0008BBF8F918FBF8F9118958F938FB78F933E
:1003B0008BB78F93EF93FF938091B4008F3F29F019
:1003C000EBE0F1E08081877F8083FF91EF918F9157
:1003D0008BBF8F918FBF8F911895EAE0F1E08081FC
:1003E00084608083808188608083EBE0F1E080819D
:1003F0008B7F80838081877F80831092B00083E031
:100400008093B1001092B3001092B40087E0809303
:1004100070007894089594E6980F993CE8F4882346
:1004200074F01092B400282F3FEF2303C001112471
:1004300064E670E00E94C0036093B30008951092D8
:10044000B300282F3FEF2303C00111246CE97FEF95
:100450000E94C0036093B400089581B18A7F81B97E
:1004600082B1856082B9089580B190B180FD0DC0E0
:1004700092FF0BC0009BFECF029930C081E090E05C
:100480009093030280930202089580B190B182FD9F
:100490000DC090FF0BC0029BFECF00991FC082E0F1
:1004A00090E09093030280930202089580B190B18E
:1004B00081709470892B811111C0009BFECF02992D
:1004C00007C081E090E090930302809302020895B8
:1004D00082E090E09093030280930202089580915D
:1004E00002029091030208951092030210920202F8
:1004F0000895E1E8F0E0808181608083EFE6F0E03C
:1005000080818160808308951F920F920FB60F92B1
:1005100011240BB60F922F933F934F935F936F93DA
:100520007F938F939F93AF93BF93EF93FF930E941B
:100530003402FF91EF91BF91AF919F918F917F9185
:100540006F915F914F913F912F910F900BBE0F9044
:100550000FBE0F901F901895299A2B9A8AE18A95C1
:10056000F1F700C0299808952B988AE18A95F1F750
:1005700000C029988AE18A95F1F700C02B9A8AE198
:100580008A95F1F700C0299A089598E00AC0299841
:100590002B9A2AE12A95F1F700C08695915099236C
:1005A00049F02B982AE12A95F1F700C080FFEFCFA0
:1005B000299AEECF2B982198299A8AE18A95F1F70A
:1005C00000C093B1927081E0911101C080E0992345
:1005D00011F0219A29989AE19A95F1F700C02B9A87
:1005E0002AE12A95F1F700C02B989AE19A95F1F744
:1005F00000C0219A0895CF93C1E0811101C0C0E0ED
:10060000CC0FCC0FCC0F683008F067E0C62BC0933E
:1006100001020E94AC028C2F80680E94C5020E94D9
:10062000B402CF91089594B19A6094B995B1957F31
:1006300095B90E94FB0208956091010267700E94C3
:10064000FB020895682F67708091010288700E94F4
:10065000FB020895CF93DF93C82FD62F0E94AC02E0
:1006600084E40E94C5020E94B4020E94AC028C2F56
:100670008370806C0E94C5028D2F0E94C5020E946B
:10068000B402DF91CF9108956A3050F4E62FF0E084
:10069000EC51FF4F6491813029F00E942A030895A4
:1006A00060E0F9CF909100029078692B609300028E
:1006B000F4CF6A3050F4E62FF0E0EC51FF4F649134
:1006C000813029F00E942A03089560E0F9CF9091CB
:1006D00000029078692B60930002F4CF60910002D1
:1006E0006068811103C0609100026F77609300021F
:1006F00081E00E942A030895CF93C0E060E08C2F30
:100700000E942A03CF5FC430C9F7CF9108951F9389
:10071000CF93DF93C82FD92F13E09E01ADECBCEC33
:100720000E94D4039C0136952795369527953695DA
:100730002795C901880F991F880F991F820F931F52
:10074000880F991FBE01681B790B812F0E944403FB
:100750009E01ADECBCEC0E94D403EC01D695C7958C
:10076000D695C795D695C7958FE99FE00197F1F784
:1007700000C00000115088F6DF91CF911F910895BD
:1007800097FB072E16F4009407D077FD09D00E943E
:10079000E30307FC05D03EF4909581959F4F0895A3
:1007A000709561957F4F0895A29FB001B39FC001DE
:1007B000A39F700D811D1124911DB29F700D811D8D
:1007C0001124911D0895AA1BBB1B51E107C0AA1F4C
:1007D000BB1FA617B70710F0A61BB70B881F991FE2
:1007E0005A95A9F780959095BC01CD010895F8948C
:0207F000FFCF39
:0207F200FF0FF7
:00000001FF
