:100000000C9472000C947E000C947E000C947E0084
:100010000C947E000C947E000C947E000C947E0068
:100020000C947E000C947E000C947E000C947E0058
:100030000C947E000C94F1030C9409040C94B50309
:100040000C947E000C947E000C947E000C947E0038
:100050000C947E000C94CC020C94FA020C945D0279
:100060000C947E000C947E000C947E000C947E0018
:100070000C947E000C947E000C947E000C947E0008
:100080000C947E000C947E000C947E000C947E00F8
:100090000C947E000C947E000C947E000C947E00E8
:1000A0000C947E000C947E000C947E000C947E00D8
:1000B0000C947E000C947E000C947E000C947E00C8
:1000C0000C947E000C947E000C947E000C947E00B8
:1000D0000C947E000C947E000C947E000C947E00A8
:1000E0000C947E0011241FBECFEFD1E2DEBFCDBF46
:1000F00000E00CBF0E94D7000C94A4050C940000F3
:10010000CF93DF93CDB7DEB70E9428030E9421046E
:1001100084E290E0FC01208184E290E02064FC0114
:10012000208385E290E0FC01208185E290E020645C
:10013000FC01208384E290E0FC01208184E290E0D5
:100140002062FC01208385E290E0FC01208185E2B1
:1001500090E02062FC01208385E290E0FC01208198
:1001600085E290E02F7BFC01208385E290E0FC019A
:10017000208185E290E02F7DFC0120830000DF914B
:10018000CF910895CF93DF93CDB7DEB780E291E0B2
:10019000FC01108281E291E0FC01208181E291E08A
:1001A0002160FC0120830000DF91CF910895CF935F
:1001B000DF93CDB7DEB7AA970FB6F894DEBF0FBEB8
:1001C000CDBF0E9480000E94C20081E090E09A832F
:1001D00089831C821B821E821D8281E090E09887A9
:1001E0008F8380E090E0AAE7B5E489879A87AB87A0
:1001F000BC8720E030E04AE755E469857A858B8545
:100200009C850E940F056B8F7C8F8D8F9E8F8B8DB1
:100210009C8DAD8DBE8D8D879E87AF87B88B20E07E
:1002200030E040E85FE36D857E858F8598890E9488
:10023000890488232CF481E090E09A8B898B55C047
:1002400020E03FEF4FE757E46D857E858F859889E5
:100250000E940A058823D9F1D4F120E030E040E281
:1002600051E469857A858B859C850E940F056F8F87
:1002700078A389A39AA38F8D98A1A9A1BAA18F8BE6
:10028000988FA98FBA8F6F89788D898D9A8D0E94EA
:100290008E046BA37CA38DA39EA3ABA1BCA1BA8B40
:1002A000A98B10C080E991E09C8B8B8B8B899C89FA
:1002B0000197F1F79C8B8B8B000089899A890197B4
:1002C0009A8B898B89899A89009761F719C06D8506
:1002D0007E858F8598890E948E046FA378A789A751
:1002E0009AA7EFA1F8A5FA8BE98B89899A899E8B49
:1002F0008D8B8D899E890197F1F79E8B8D8B0000E8
:100300008AE390E0DC018C91882F90E0817099273E
:10031000009751F08AE390E021E0FC0120838B817B
:100320009C8101969C838B8389819A81009741F4FB
:1003300080E090E00E946B0380E090E00E943F0428
:1003400089819A818130910559F58F81988500972F
:1003500039F185E290E0DC012C9185E290E02F7B81
:10036000FC01208385E290E0DC012C9185E290E0A5
:100370002F7DFC0120838EE290E00E946B0382E3DC
:1003800090E00E943F048B819C81823EF4E09F07B5
:1003900039F034F082E090E09A8389831C821B82DA
:1003A00089819A818230910539F585E290E0DC01FE
:1003B0002C9185E290E02064FC01208385E290E0AE
:1003C000DC012C9185E290E02F7DFC01208380E010
:1003D00090E00E946B0382E390E00E943F048B81D7
:1003E0009C818A36F1E09F0739F034F083E090E099
:1003F0009A8389831C821B8289819A81833091052B
:1004000039F585E290E0DC012C9185E290E02F7BCC
:10041000FC01208385E290E0DC012C9185E290E0F4
:100420002F7DFC01208383E290E00E946B0388E231
:1004300090E00E943F048B819C818E35F1E09F0704
:1004400039F034F084E090E09A8389831C821B8227
:1004500089819A8184309105A9F480E090E00E941E
:100460006B0382E390E00E943F048B819C818E3578
:1004700021E0920739F034F085E090E09A83898397
:100480001C821B8289819A818530910509F038CFC1
:100490008EE290E00E946B0382E390E00E943F04B2
:1004A0008B819C81883EA3E09A0709F00CF428CF49
:1004B0001A8219821C821B8223CF1F920F920FB6C1
:1004C0000F9211240BB60F922F938F939F93EF935C
:1004D000FF93CF93DF93CDB7DEB787E490E0FC01C5
:1004E00080818823C9F488E490E0FC01808188231E
:1004F00099F48BE091E0FC0120818BE091E02E7F6C
:10050000FC0120838BE091E0FC0120818BE091E0F5
:100510002D7FFC01208331C087E490E0FC018081C5
:10052000882399F08BE091E0FC0120818BE091E041
:100530002D7FFC0120838BE091E0FC0120818BE08A
:1005400091E02160FC01208318C088E490E0FC0168
:100550008081882391F08BE091E0FC0120818BE089
:1005600091E02E7FFC0120838BE091E0FC01208153
:100570008BE091E02260FC0120830000DF91CF91AD
:10058000FF91EF919F918F912F910F900BBE0F9044
:100590000FBE0F901F9018951F920F920FB60F92DB
:1005A00011240BB60F922F938F939F93EF93FF938A
:1005B000CF93DF93CDB7DEB787E490E0FC01808175
:1005C0008F3F49F08BE091E0FC0120818BE091E0CE
:1005D0002E7FFC0120830000DF91CF91FF91EF91EE
:1005E0009F918F912F910F900BBE0F900FBE0F9088
:1005F0001F9018951F920F920FB60F9211240BB6F1
:100600000F922F938F939F93EF93FF93CF93DF934B
:10061000CDB7DEB788E490E0FC0180818F3F49F0E0
:100620008BE091E0FC0120818BE091E02D7FFC01CB
:1006300020830000DF91CF91FF91EF919F918F91E7
:100640002F910F900BBE0F900FBE0F901F9018951B
:10065000CF93DF93CDB7DEB78AE091E0FC01208134
:100660008AE091E02160FC0120838AE091E0FC01B6
:1006700020818AE091E02260FC0120838BE091E000
:10068000FC0120818BE091E02E7FFC0120838BE038
:1006900091E0FC0120818BE091E02D7FFC01208323
:1006A00084E490E0FC01108285E490E023E0FC010A
:1006B000208387E490E0FC01108288E490E0FC0154
:1006C00010828EE690E027E0FC0120837894000001
:1006D000DF91CF910895CF93DF930F92CDB7DEB71F
:1006E000898389818C39E4F18981843609F0C4F5E4
:1006F00089818823DCF088E490E0FC011082898104
:10070000082E000C990B2FEF289FA001299F500D58
:10071000112424E630E0CA01B9010E946104CB0132
:100720009C0187E490E0FC0120831AC087E490E0FC
:10073000FC0110828981082E000C990B2FEF289F55
:10074000A001299F500D11242CE93FEFCA01B901E6
:100750000E946104CB019C0188E490E0FC012083AD
:1007600000000F90DF91CF9108951F921FB61F9246
:1007700011248F938BB78F93EF93FF938091B300E6
:1007800081110DC08091B400811109C0EBE0F1E04E
:1007900080818B7F80838081877F80830CC0809164
:1007A000B300882389F0EBE0F1E08081877F8083CC
:1007B000808184608083FF91EF918F918BBF8F91B7
:1007C0001F901FBE1F9018958091B400882399F345
:1007D000EBE0F1E080818B7F808380818860808383
:1007E000EACF8F938FB78F938BB78F93EF93FF934E
:1007F0008091B3008F3F29F0EBE0F1E080818B7FA7
:100800008083FF91EF918F918BBF8F918FBF8F91DD
:1008100018958F938FB78F938BB78F93EF93FF9329
:100820008091B4008F3F29F0EBE0F1E08081877F79
:100830008083FF91EF918F918BBF8F918FBF8F91AD
:100840001895EAE0F1E0808184608083808188608F
:100850008083EBE0F1E080818B7F80838081877FE4
:1008600080831092B00083E08093B1001092B300B7
:100870001092B40087E0809370007894089594E615
:10088000980F993CE8F4882374F01092B400282F54
:100890003FEF2303C001112464E670E00E9461046D
:1008A0006093B30008951092B300282F3FEF230305
:1008B000C00111246CE97FEF0E9461046093B400D1
:1008C000089597FB072E16F4009407D077FD09D002
:1008D0000E94750407FC05D03EF4909581959F4FCA
:1008E0000895709561957F4F0895AA1BBB1B51E138
:1008F00007C0AA1FBB1FA617B70710F0A61BB70B90
:10090000881F991F5A95A9F780959095BC01CD0134
:1009100008950E94BD0408F481E008950E94E9044E
:1009200088F09F5798F0B92F9927B751B0F0E1F0B0
:10093000660F771F881F991F1AF0BA95C9F714C060
:10094000B13091F00E940305B1E008950C940305C5
:10095000672F782F8827B85F39F0B93FCCF3869599
:1009600077956795B395D9F73EF4909580957095F6
:1009700061957F4F8F4F9F4F0895990F0008550F36
:10098000AA0BE0E8FEEF16161706E807F907C0F015
:1009900012161306E407F50798F0621B730B840B1D
:1009A000950B39F40A2661F0232B242B252B21F4F7
:1009B00008950A2609F4A140A6958FEF811D811D97
:1009C000089557FD9058440F551F59F05F3F71F03F
:1009D0004795880F97FB991F61F09F3F79F08795A6
:1009E0000895121613061406551FF2CF4695F1DF2F
:1009F00008C0161617061806991FF1CF86957105BF
:100A0000610508940895E894BB2766277727CB01F2
:100A100097F908950E94BD0408F48FEF08950E948D
:100A200022050C9493050E94850538F00E948C05E0
:100A300020F0952311F00C947C050C948205112470
:100A40000C9404050E94E10470F3959FC1F3950F87
:100A500050E0551F629FF001729FBB27F00DB11D42
:100A6000639FAA27F00DB11DAA1F649F6627B00DD2
:100A7000A11D661F829F2227B00DA11D621F739FBB
:100A8000B00DA11D621F839FA00D611D221F749FC9
:100A90003327A00D611D231F849F600D211D822F10
:100AA000762F6A2F11249F5750409AF0F1F0882337
:100AB0004AF0EE0FFF1FBB1F661F771F881F915064
:100AC0005040A9F79E3F510580F00C947C050C9492
:100AD00004055F3FE4F3983ED4F3869577956795D8
:100AE000B795F795E7959F5FC1F7FE2B880F911D8E
:100AF0009695879597F9089597F99F6780E870E034
:100B000060E008959FEF80EC089500240A94161683
:100B1000170618060906089500240A9412161306EB
:100B2000140605060895092E0394000C11F4882379
:100B300052F0BB0F40F4BF2B11F460FF04C06F5F95
:0C0B40007F4F8F4F9F4F0895F894FFCF18
:00000001FF
