:100000000C9472000C94C9010C94C2000C949300DF
:100010000C9493000C9493000C9493000C94930014
:100020000C9493000C9493000C9493000C94930004
:100030000C9493000C94FE080C9416090C94C208BE
:100040000C9493000C9493000C9493000C949300E4
:100050000C94C5090C945C080C9473080C94240847
:100060000C9493000C9493000C9493000C949300C4
:100070000C9493000C9493000C9493000C949300B4
:100080000C9493000C9493000C9493000C949300A4
:100090000C9493000C9493000C9493000C94930094
:1000A0000C9493000C9493000C9493000C94930084
:1000B0000C9493000C9493000C9493000C94930074
:1000C0000C9493000C9493000C9493000C94930064
:1000D0000C9493000C9493000C9493000C94930054
:1000E0000C94930011241FBECFEFD1E2DEBFCDBF31
:1000F00000E00CBF12E0A0E0B2E0E4E6F6E100E0D0
:100100000BBF02C007900D92A230B107D9F722E0D1
:10011000A2E0B2E001C01D92AA30B207E1F70E944E
:1001200021030C94300B0C940000CF93DF93CDB7D8
:10013000DEB778948DE390E0FC0120818DE390E0C0
:100140002160FC01208389E690E0FC01208189E6A2
:1001500090E02260FC0120838DE390E0FC0120818F
:100160008DE390E02260FC01208389E690E0FC01B1
:10017000208189E690E02860FC0120830000DF9167
:10018000CF9108951F920F920FB60F9211240BB6C4
:100190000F922F933F934F935F936F937F938F9320
:1001A0009F93AF93BF93EF93FF93CF93DF93CDB71D
:1001B000DEB7A297DEBFCDBF80E090E0A0E2B2E460
:1001C00089839A83AB83BC8320E030E04AE755E41F
:1001D00069817A818B819C810E949B0A6B8B7C8BCD
:1001E0008D8B9E8B8B899C89AD89BE898D839E83E7
:1001F000AF83B88720E030E040E85FE36D817E8127
:100200008F8198850E94150A88232CF481E090E064
:100210009A87898755C020E03FEF4FE757E46D810B
:100220007E818F8198850E94960A8823D9F1D4F126
:1002300020E030E040E251E469817A818B819C8149
:100240000E949B0A6F8B788F898F9A8F8F89988DE8
:10025000A98DBA8D8F87988BA98BBA8B6F8578897A
:1002600089899A890E941A0A6B8F7C8F8D8F9E8F45
:10027000AB8DBC8DBA87A98710C080E991E09C87BF
:100280008B878B859C850197F1F79C878B87000076
:1002900089859A8501979A87898789859A850097A4
:1002A00061F719C06D817E818F8198850E941A0A3D
:1002B0006F8F78A389A39AA38F8D98A19A87898736
:1002C00089859A859E878D878D859E850197F1F713
:1002D0009E878D8700001092050210920402809183
:1002E0000602909107028630910509F034F482E00D
:1002F00090E0909303028093020280910602909115
:1003000007028730910531F483E090E09093030277
:100310008093020280910602909107028F3091052E
:1003200079F074F080910602909107028E31910568
:1003300009F034F482E090E090930302809302028B
:1003400080910602909107028F31910531F483E686
:1003500090E090930302809302020000A2960FB6F1
:10036000F894DEBF0FBECDBFDF91CF91FF91EF912B
:10037000BF91AF919F918F917F916F915F914F91BD
:100380003F912F910F900BBE0F900FBE0F901F90BB
:1003900018951F920F920FB60F9211240BB60F9261
:1003A0002F933F934F935F936F937F938F939F937D
:1003B000AF93BF93EF93FF93CF93DF93CDB7DEB7A8
:1003C000A297DEBFCDBF80E090E0A0E2B2E48983D7
:1003D0009A83AB83BC8320E030E04AE755E469812F
:1003E0007A818B819C810E949B0A6B8B7C8B8D8B8D
:1003F0009E8B8B899C89AD89BE898D839E83AF83BB
:10040000B88720E030E040E85FE36D817E818F8136
:1004100098850E94150A88232CF481E090E09A8741
:10042000898755C020E03FEF4FE757E46D817E811B
:100430008F8198850E94960A8823D9F1D4F120E013
:1004400030E040E251E469817A818B819C810E9495
:100450009B0A6F8B788F898F9A8F8F89988DA98D42
:10046000BA8D8F87988BA98BBA8B6F85788989898C
:100470009A890E941A0A6B8F7C8F8D8F9E8FAB8D0D
:10048000BC8DBA87A98710C080E991E09C878B87D3
:100490008B859C850197F1F79C878B870000898568
:1004A0009A8501979A87898789859A85009761F748
:1004B00019C06D817E818F8198850E941A0A6F8F85
:1004C00078A389A39AA38F8D98A19A878987898514
:1004D0009A859E878D878D859E850197F1F79E87EA
:1004E0008D8700001092050210920402809106028E
:1004F000909107028330910579F074F080910602A3
:10050000909107028E31910509F034F482E090E079
:100510009093030280930202809106029091070259
:100520008F30910531F484E090E090930302809342
:10053000020280910602909107028F31910531F4F9
:1005400083E690E090930302809302020000A2965B
:100550000FB6F894DEBF0FBECDBFDF91CF91FF91F4
:10056000EF91BF91AF919F918F917F916F915F912B
:100570004F913F912F910F900BBE0F900FBE0F9098
:100580001F901895CF93DF93CDB7DEB70E940C0371
:100590000E946E090E9495000E948A080E942E09FE
:1005A0000E94BA0984E290E0FC01208184E290E09C
:1005B0002064FC01208384E290E0FC01208184E23D
:1005C00090E02062FC01208384E290E0FC01208125
:1005D00084E290E02860FC01208385E290E0FC0149
:1005E000208185E290E02064FC01208385E290E098
:1005F000FC01208185E290E02062FC01208385E2FD
:1006000090E0FC01208185E290E0277FFC012083BF
:100610000000DF91CF910895CF93DF93CDB7DEB780
:1006200080E291E0FC01108281E291E0FC012081F6
:1006300081E291E02160FC0120830000DF91CF91F5
:100640000895CF93DF93CDB7DEB7C257D1090FB668
:10065000F894DEBF0FBECDBF0E94C20218861F8273
:1006600081E090E09A8789871A82198282E390E07C
:100670009C838B8382E390E09C878B871E821D8204
:1006800080E290E0DC018C91882F90E080749927C3
:10069000009709F0A9C08D819E81009709F0A4C040
:1006A00080E090E0A0EAB1E48D879E87AF87B88BA9
:1006B00020E030E04AE755E46D857E858F85988996
:1006C0000E949B0A27966CAF7DAF8EAF9FAF279796
:1006D00027968CAD9DADAEADBFAD2797898B9A8B1C
:1006E000AB8BBC8B20E030E040E85FE369897A891E
:1006F0008B899C890E94150A88232CF481E090E064
:100700009E8B8D8B62C020E03FEF4FE757E46989F5
:100710007A898B899C890E94960A882309F00CF4B7
:1007200042C020E030E040E251E46D857E858F8557
:1007300098890E949B0A2B966CAF7DAF8EAF9FAFBE
:100740002B972B968CAD9DADAEADBFAD2B978FABE0
:1007500098AFA9AFBAAF6FA978AD89AD9AAD0E9435
:100760001A0A2F966CAF7DAF8EAF9FAF2F972D9645
:10077000AEADBFAD2D97BE8BAD8B10C080E991E0C3
:10078000988F8F8B8F89988D0197F1F7988F8F8B2A
:1007900000008D899E8901979E8B8D8B8D899E8906
:1007A000009761F71DC069897A898B899C890E94AD
:1007B0001A0A63966CAF7DAF8EAF9FAF6397619659
:1007C000EEADFFAD6197FE8BED8B8D899E899A8F83
:1007D000898F898D9A8D0197F1F79A8F898F000003
:1007E00081E090E09E838D8380E290E0DC018C913B
:1007F000882F90E080749927009709F464C18D8157
:100800009E818130910509F05EC180E090E0A0EA10
:10081000B1E489A79AA7ABA7BCA720E030E04AE7DC
:1008200055E469A57AA58BA59CA50E949B0A6796AD
:100830006CAF7DAF8EAF9FAF679767968CAD9DAD68
:10084000AEADBFAD67978DA79EA7AFA7B8AB20E0B1
:1008500030E040E85FE36DA57EA58FA598A90E94D2
:10086000150A88232CF481E090E09AAB89AB66C02E
:1008700020E03FEF4FE757E46DA57EA58FA598A92F
:100880000E94960A882309F00CF446C020E030E06C
:1008900040E251E469A57AA58BA59CA50E949B0A1C
:1008A0006B966CAF7DAF8EAF9FAF6B976B968CAD39
:1008B0009DADAEADBFAD6B9723968CAF9DAFAEAF88
:1008C000BFAF239723966CAD7DAD8EAD9FAD2397C3
:1008D0000E941A0A6F966CAF7DAF8EAF9FAF6F9775
:1008E0006D96AEADBFAD6D97BAABA9AB10C080E948
:1008F00091E09CAB8BAB8BA99CA90197F1F79CABCA
:100900008BAB000089A99AA901979AAB89AB89A9F9
:100910009AA9009761F71DC06DA57EA58FA598A91E
:100920000E941A0AA3966CAF7DAF8EAF9FAFA397BC
:10093000A196EEADFFADA197FAABE9AB89A99AA953
:100940009EAB8DAB8DA99EA90197F1F79EAB8DABA8
:10095000000085E290E0DC012C9185E290E02860C7
:10096000FC01208380E090E0AAEFB4E48B8F9C8FA1
:10097000AD8FBE8F20E030E04AE755E46B8D7C8D73
:100980008D8D9E8D0E949B0AA7966CAF7DAF8EAF1A
:100990009FAFA797A7968CAD9DADAEADBFADA79706
:1009A0008F8F98A3A9A3BAA320E030E040E85FE3CB
:1009B0006F8D78A189A19AA10E94150A88232CF431
:1009C00081E090E09CA38BA362C020E03FEF4FE763
:1009D00057E46F8D78A189A19AA10E94960A882375
:1009E00009F00CF442C020E030E040E251E46B8DAD
:1009F0007C8D8D8D9E8D0E949B0AAB966CAF7DAFDA
:100A00008EAF9FAFAB97AB968CAD9DADAEADBFAD8E
:100A1000AB978BAF9CAFADAFBEAF6BAD7CAD8DADCB
:100A20009EAD0E941A0AAF966CAF7DAF8EAF9FAF9E
:100A3000AF97AD96AEADBFADAD97BCA3ABA310C0A5
:100A400080E991E09EA38DA38DA19EA10197F1F76E
:100A50009EA38DA300008BA19CA101979CA38BA3B7
:100A60008BA19CA1009761F71DC06F8D78A189A112
:100A70009AA10E941A0AE3966CAF7DAF8EAF9FAF2A
:100A8000E397E196EEADFFADE197FCA3EBA38BA15D
:100A90009CA198A78FA38FA198A50197F1F798A77C
:100AA0008FA3000081E090E0909303028093020204
:100AB00085E290E0DC012C9185E290E0277FFC014B
:100AC00020831E821D820E94B009882F90E09A83A5
:100AD000898389819A818130910549F41A8219822A
:100AE0008B819C8101979C838B830E94B5098981AE
:100AF0009A818230910549F41A8219828B819C81F6
:100B000001969C838B830E94B5098AE390E0DC0107
:100B10008C91882F90E081709927009771F08AE37B
:100B200090E021E0FC012083809104029091050275
:100B300001969093050280930402809102029091A5
:100B40000302009741F480E090E00E94A40880E056
:100B500090E00E944C098091020290910302813042
:100B60009105D9F42B853C858B819C81A901481B7B
:100B7000590BCA01C9960E94A4082B853C858B811C
:100B80009C81D901A81BB90BCD0126E430E0F90105
:100B9000E81BF90BCF010E944C0980910202909151
:100BA00003028230910591F580E090E00E94A40854
:100BB00080E090E00E944C0985E290E0DC012C91FD
:100BC00085E290E02860FC012083809104029091EE
:100BD0000502843FF1E09F07C9F0C4F0809106024E
:100BE000909107020196909307028093060281E09C
:100BF00090E0909303028093020285E290E0DC0192
:100C00002C9185E290E0277FFC01208380910202F5
:100C10009091030283309105B1F580E090E00E944D
:100C2000A40880E090E00E944C0985E290E0DC019D
:100C30002C9185E290E02860FC01208380910402E1
:100C400090910502843FF1E09F07E9F0E4F0809184
:100C50000602909107020196909307028093060284
:100C600085E090E0909303028093020210920502C7
:100C70001092040285E290E0DC012C9185E290E084
:100C8000277FFC012083809102029091030284302F
:100C90009105B1F580E090E00E94A40880E090E02A
:100CA0000E944C0985E290E0DC012C9185E290E005
:100CB0002860FC0120838091040290910502843F0A
:100CC000F1E09F07E9F0E4F08091060290910702BD
:100CD0000196909307028093060289E090E090933A
:100CE000030280930202109205021092040285E230
:100CF00090E0DC012C9185E290E0277FFC012083CD
:100D0000809102029091030285309105D9F48CE321
:100D100090E00E94A40886E490E00E944C09809133
:100D20000402909105028E3EF2E09F0759F054F0C4
:100D300086E090E0909303028093020210920502F5
:100D40001092040280910202909103028630910574
:100D5000D9F480E090E00E94A40880E590E00E9431
:100D60004C0980910402909105028A3621E0920795
:100D700059F054F087E090E09093030280930202D0
:100D800010920502109204028091020290910302D7
:100D90008730910569F585E290E0DC012C9185E2D0
:100DA00090E02F7BFC01208385E290E0DC012C9118
:100DB00085E290E02F7DFC0120838CE390E00E948F
:100DC000A40886E490E00E944C098091040290916E
:100DD00005028331F1E09F0759F054F088E090E07C
:100DE0009093030280930202109205021092040273
:100DF00080910202909103028830910509F580E00C
:100E000090E00E94A40880E590E00E944C09809147
:100E10000402909105028E3521E0920789F084F05A
:100E200081E090E090930302809302021092050209
:100E30001092040281E090E09093010280930002FE
:100E4000809102029091030289309105D9F48CE3DC
:100E500090E00E94A40886E490E00E944C098091F2
:100E60000402909105028E3E42E0940759F054F03E
:100E70008AE090E0909303028093020210920502B0
:100E80001092040280910202909103028A3091052F
:100E9000D9F48CE390E00E94A40880E090E00E94E6
:100EA0004C0980910402909105028A3651E0950721
:100EB00059F054F08BE090E090930302809302028B
:100EC0001092050210920402809102029091030296
:100ED0008B30910569F585E290E0DC012C9185E28B
:100EE00090E02F7BFC01208385E290E0DC012C91D7
:100EF00085E290E02F7DFC0120838CE390E00E944E
:100F0000A40886E490E00E944C098091040290912C
:100F100005028E35F1E09F0759F054F08CE090E027
:100F20009093030280930202109205021092040231
:100F300080910202909103028C30910509F580E5C1
:100F400090E00E94A40880E090E00E944C0980910B
:100F5000040290910502833121E0920789F084F028
:100F600081E090E0909303028093020210920502C8
:100F70001092040282E090E09093010280930002BC
:100F800080910202909103028336910509F580E079
:100F900090E00E94A40880E090E00E944C0984E662
:100FA00090E0909307028093060280910402909152
:100FB0000502843F41E0940759F054F084E690E044
:100FC0009093030280930202109205021092040291
:100FD000809102029091030284369105D9F48CE34A
:100FE00090E00E94A40886E490E00E944C09809161
:100FF000040290910502843F51E0950759F054F0A6
:1010000085E690E09093030280930202109205021D
:10101000109204028091020290910302853691059C
:1010200009F02ECB80E090E00E94A40880E090E0E0
:101030000E944C0985E290E0DC012C9185E290E071
:101040002860FC0120831CCB1F921FB61F92112425
:101050008F938BB78F93EF93FF9387B581110CC05C
:1010600088B5811109C0EBE0F1E080818E7F80833B
:1010700080818D7F80830BC087B5882389F0EBE06A
:10108000F1E080818D7F8083808181608083FF910A
:10109000EF918F918BBF8F911F901FBE1F9018955E
:1010A00088B58823A1F3EBE0F1E080818E7F808317
:1010B000808182608083EBCF8F938FB78F938BB7C4
:1010C0008F93EF93FF9387B58F3F29F0EBE0F1E02B
:1010D00080818E7F8083FF91EF918F918BBF8F9165
:1010E0008FBF8F9118958F938FB78F938BB78F93F7
:1010F000EF93FF9388B58F3F29F0EBE0F1E080811B
:101100008D7F8083FF91EF918F918BBF8F918FBFE8
:101110008F911895EAE0F1E0808181608083808181
:1011200082608083EBE0F1E080818E7F808380812C
:101130008D7F808314BC83E085BD17BC18BC87E01D
:1011400080936E007894089594E6980F993CC8F4C3
:10115000882364F018BC282F3FEF2303C00111241B
:1011600064E670E00E94ED0967BD089517BC282F62
:101170003FEF2303C00111246CE97FEF0E94ED09CA
:1011800068BD08951F921FB61F9211248F938BB7CD
:101190008F93EF93FF938091B30081110DC08091E5
:1011A000B400811109C0EBE0F1E080818B7F808386
:1011B0008081877F80830CC08091B300882389F071
:1011C000EBE0F1E08081877F808380818460808391
:1011D000FF91EF918F918BBF8F911F901FBE1F903A
:1011E00018958091B400882399F3EBE0F1E08081B9
:1011F0008B7F8083808188608083EACF8F938FB7D5
:101200008F938BB78F93EF93FF938091B3008F3FB2
:1012100029F0EBE0F1E080818B7F8083FF91EF91FB
:101220008F918BBF8F918FBF8F9118958F938FB7B1
:101230008F938BB78F93EF93FF938091B4008F3F81
:1012400029F0EBE0F1E08081877F8083FF91EF91CF
:101250008F918BBF8F918FBF8F911895EAE0F1E04E
:10126000808184608083808188608083EBE0F1E00E
:1012700080818B7F80838081877F80831092B00004
:1012800083E08093B1001092B3001092B40087E025
:10129000809370007894089594E6980F993CE8F450
:1012A000882374F01092B400282F3FEF2303C0016D
:1012B000112464E670E00E94ED096093B300089584
:1012C0001092B300282F3FEF2303C00111246CE9D3
:1012D0007FEF0E94ED096093B400089581B18A7F89
:1012E00081B982B1856082B9089580B190B180FDE5
:1012F0000DC092FF0BC0009BFECF029930C081E071
:1013000090E09093090280930802089580B190B113
:1013100082FD0DC090FF0BC0029BFECF00991FC045
:1013200082E090E09093090280930802089580B1D2
:1013300090B181709470892B811111C0009BFECFF8
:10134000029907C081E090E090930902809308021F
:10135000089582E090E09093090280930802089536
:10136000809108029091090208951092090210924A
:1013700008020895E1E8F0E0808181608083EFE673
:10138000F0E080818160808308951F920F920FB6F4
:101390000F9211240BB60F922F933F934F935F93AD
:1013A0006F937F938F939F93AF93BF93EF93FF932D
:1013B0000E947509FF91EF91BF91AF919F918F911D
:1013C0007F916F915F914F913F912F910F900BBE45
:1013D0000F900FBE0F901F90189597FB072E16F4D5
:1013E000009407D077FD09D00E94010A07FC05D0C0
:1013F0003EF4909581959F4F0895709561957F4F2C
:101400000895AA1BBB1B51E107C0AA1FBB1FA6174B
:10141000B70710F0A61BB70B881F991F5A95A9F79D
:1014200080959095BC01CD0108950E94490A08F469
:1014300081E008950E94750A88F09F5798F0B92FAF
:101440009927B751B0F0E1F0660F771F881F991FF9
:101450001AF0BA95C9F714C0B13091F00E948F0A02
:10146000B1E008950C948F0A672F782F8827B85F12
:1014700039F0B93FCCF3869577956795B395D9F751
:101480003EF490958095709561957F4F8F4F9F4F5B
:101490000895990F0008550FAA0BE0E8FEEF161605
:1014A0001706E807F907C0F012161306E407F50758
:1014B00098F0621B730B840B950B39F40A2661F0CC
:1014C000232B242B252B21F408950A2609F4A1406F
:1014D000A6958FEF811D811D089557FD9058440FEB
:1014E000551F59F05F3F71F04795880F97FB991F83
:1014F00061F09F3F79F08795089512161306140640
:10150000551FF2CF4695F1DF08C0161617061806CC
:10151000991FF1CF86957105610508940895E894A7
:10152000BB2766277727CB0197F908950E94490AC0
:1015300008F48FEF08950E94AE0A0C941F0B0E94CE
:10154000110B38F00E94180B20F0952311F00C9429
:10155000080B0C940E0B11240C94900A0E946D0A37
:1015600070F3959FC1F3950F50E0551F629FF001F6
:10157000729FBB27F00DB11D639FAA27F00DB11D0F
:10158000AA1F649F6627B00DA11D661F829F222798
:10159000B00DA11D621F739FB00DA11D621F839F1F
:1015A000A00D611D221F749F3327A00D611D231FF5
:1015B000849F600D211D822F762F6A2F11249F5743
:1015C00050409AF0F1F088234AF0EE0FFF1FBB1F46
:1015D000661F771F881F91505040A9F79E3F510505
:1015E00080F00C94080B0C94900A5F3FE4F3983E53
:1015F000D4F3869577956795B795F795E7959F5FAF
:10160000C1F7FE2B880F911D9695879597F9089540
:1016100097F99F6780E870E060E008959FEF80ECA5
:10162000089500240A941616170618060906089548
:1016300000240A9412161306140605060895092EAE
:101640000394000C11F4882352F0BB0F40F4BF2B1D
:1016500011F460FF04C06F5F7F4F8F4F9F4F08955D
:04166000F894FFCF2C
:02166400020082
:00000001FF
