:100000000C9472000C94B0000C9493000C94930028
:100010000C9493000C9493000C9493000C94930014
:100020000C9493000C9493000C9493000C94930004
:100030000C9493000C94BB040C94E9040C944C04B1
:100040000C9493000C9493000C9493000C949300E4
:100050000C9493000C9463030C9491030C94F4029D
:100060000C9493000C9493000C9493000C949300C4
:100070000C9493000C9493000C9493000C949300B4
:100080000C9493000C9493000C9493000C949300A4
:100090000C9493000C9493000C9493000C94930094
:1000A0000C9493000C9493000C9493000C94930084
:1000B0000C9493000C9493000C9493000C94930074
:1000C0000C9493000C9493000C9493000C94930064
:1000D0000C9493000C9493000C9493000C94930054
:1000E0000C94930011241FBECFEFD1E2DEBFCDBF31
:1000F00000E00CBF12E0A0E0B2E0E2EDFDE000E0C5
:100100000BBF02C007900D92A230B107D9F722E0D1
:10011000A2E0B2E001C01D92A630B207E1F70E9452
:100120002C010C94E7060C940000CF93DF93CDB71D
:10013000DEB778948DE390E0FC0120818DE390E0C0
:100140002160FC01208389E690E0FC01208189E6A2
:1001500090E02260FC0120830000DF91CF910895A0
:100160001F920F920FB60F9211248F939F93CF93EC
:10017000DF93CDB7DEB71092010210920002109209
:1001800003021092020281E090E0909305028093B6
:1001900004020000DF91CF919F918F910F900FBECD
:1001A0000F901F901895CF93DF93CDB7DEB70E94C5
:1001B00095000E94BF030E94170584E290E0FC01B5
:1001C000208184E290E02064FC01208385E290E0BD
:1001D000FC01208185E290E02064FC01208384E220
:1001E00090E0FC01208184E290E02062FC01208309
:1001F00085E290E0FC01208185E290E02062FC0134
:10020000208385E290E0FC01208185E290E02F7B55
:10021000FC01208385E290E0FC01208185E290E0F2
:100220002F7DFC0120830000DF91CF910895CF93B3
:10023000DF93CDB7DEB780E291E0FC01108281E26E
:1002400091E0FC01208181E291E02160FC012083AA
:100250000000DF91CF910895CF93DF93CDB7DEB744
:10026000A6970FB6F894DEBF0FBECDBF0E94D30095
:100270000E9417011A82198281E090E09C838B838F
:1002800080E090E0AAE7B5E48D839E83AF83B887D2
:1002900020E030E04AE755E46D817E818F819885CA
:1002A0000E9452066F8B788F898F9A8F8F89988DD5
:1002B000A98DBA8D89879A87AB87BC8720E030E00B
:1002C00040E85FE369857A858B859C850E94CC0533
:1002D00088232CF481E090E09E878D8755C020E034
:1002E0003FEF4FE757E469857A858B859C850E94AF
:1002F0004D068823D9F1D4F120E030E040E251E40A
:100300006D817E818F8198850E9452066B8F7C8FD4
:100310008D8F9E8F8B8D9C8DAD8DBE8D8B8B9C8B91
:10032000AD8BBE8B6B897C898D899E890E94D1059E
:100330006F8F78A389A39AA3AF8DB8A1BE87AD872D
:1003400010C080E991E0988B8F878F8598890197FD
:10035000F1F7988B8F8700008D859E8501979E878A
:100360008D878D859E85009761F719C069857A858F
:100370008B859C850E94D1056BA37CA38DA39EA336
:10038000EBA1FCA1FE87ED878D859E859A8B898BDD
:1003900089899A890197F1F79A8B898B00008AE302
:1003A00090E0DC018C91882F90E081709927009774
:1003B00071F08AE390E021E0FC0120838091020249
:1003C0009091030201969093030280930202809120
:1003D000000290910102009711F580E090E00E94E8
:1003E000020480E090E00E945A0580910202909100
:1003F0000302843FF1E09F0791F08CF080910402AA
:10040000909105028130910551F481E090E0909344
:100410000102809300021092050210920402809162
:100420000002909101028130910589F58B819C81B8
:10043000009769F185E290E0DC012C9185E290E083
:100440002F7BFC01208385E290E0DC012C9185E28A
:1004500090E02F7DFC0120838EE290E00E94020458
:1004600082E390E00E945A0580910202909103027B
:10047000823EF4E09F0759F054F082E090E09093C0
:1004800001028093000210920302109202028091F6
:100490000002909101028230910569F585E290E0B9
:1004A000DC012C9185E290E02064FC01208385E250
:1004B00090E0DC012C9185E290E02F7DFC0120830F
:1004C00080E090E00E94020482E390E00E945A05DE
:1004D00080910202909103028A36F1E09F0759F061
:1004E00054F083E090E09093010280930002109218
:1004F0000302109202028091000290910102833067
:10050000910569F585E290E0DC012C9185E290E0AF
:100510002F7BFC01208385E290E0DC012C9185E2B9
:1005200090E02F7DFC01208383E290E00E94020492
:1005300088E290E00E945A058091020290910302A5
:100540008E35F1E09F0759F054F084E090E09093ED
:100550000102809300021092030210920202809125
:1005600000029091010284309105D9F480E090E07E
:100570000E94020482E390E00E945A0580910202E8
:10058000909103028E3521E0920759F054F085E0F6
:1005900090E0909301028093000210920302109267
:1005A000020280910002909101028530910509F0CC
:1005B000F6CE8EE290E00E94020482E390E00E9478
:1005C0005A058091020290910302883EA3E09A07A7
:1005D00009F00CF4E4CE1092010210920002109285
:1005E000030210920202DBCE1F920F920FB60F92FF
:1005F00011240BB60F922F938F939F93EF93FF933A
:10060000CF93DF93CDB7DEB787E490E0FC01808124
:100610008823C9F488E490E0FC018081882399F460
:100620008BE091E0FC0120818BE091E02E7FFC01CA
:1006300020838BE091E0FC0120818BE091E02D7F15
:10064000FC01208331C087E490E0FC018081882395
:1006500099F08BE091E0FC0120818BE091E02D7F0F
:10066000FC0120838BE091E0FC0120818BE091E094
:100670002160FC01208318C088E490E0FC018081A7
:10068000882391F08BE091E0FC0120818BE091E0E8
:100690002E7FFC0120838BE091E0FC0120818BE028
:1006A00091E02260FC0120830000DF91CF91FF9157
:1006B000EF919F918F912F910F900BBE0F900FBED6
:1006C0000F901F9018951F920F920FB60F92112442
:1006D0000BB60F922F938F939F93EF93FF93CF932C
:1006E000DF93CDB7DEB787E490E0FC0180818F3FD8
:1006F00049F08BE091E0FC0120818BE091E02E7FBE
:10070000FC0120830000DF91CF91FF91EF919F9139
:100710008F912F910F900BBE0F900FBE0F901F90D7
:1007200018951F920F920FB60F9211240BB60F92CD
:100730002F938F939F93EF93FF93CF93DF93CDB737
:10074000DEB788E490E0FC0180818F3F49F08BE0C8
:1007500091E0FC0120818BE091E02D7FFC01208362
:100760000000DF91CF91FF91EF919F918F912F9199
:100770000F900BBE0F900FBE0F901F901895CF9348
:10078000DF93CDB7DEB78AE091E0FC0120818AE0FB
:1007900091E02160FC0120838AE091E0FC0120814E
:1007A0008AE091E02260FC0120838BE091E0FC0173
:1007B00020818BE091E02E7FFC0120838BE091E093
:1007C000FC0120818BE091E02D7FFC01208384E4FB
:1007D00090E0FC01108285E490E023E0FC0120839E
:1007E00087E490E0FC01108288E490E0FC01108234
:1007F0008EE690E027E0FC01208378940000DF91F2
:10080000CF910895CF93DF930F92CDB7DEB7898351
:1008100089818C39E4F18981843609F0C4F58981B4
:100820008823DCF088E490E0FC0110828981082EA6
:10083000000C990B2FEF289FA001299F500D112428
:1008400024E630E0CA01B9010E94A405CB019C0155
:1008500087E490E0FC0120831AC087E490E0FC016B
:1008600010828981082E000C990B2FEF289FA00180
:10087000299F500D11242CE93FEFCA01B9010E94B4
:10088000A405CB019C0188E490E0FC0120830000DA
:100890000F90DF91CF9108951F920F920FB60F9294
:1008A00011240BB60F922F938F939F93EF93FF9387
:1008B000CF93DF93CDB7DEB783EB90E0FC0180816F
:1008C0008823C9F484EB90E0FC018081882399F4AB
:1008D0008BE091E0FC0120818BE091E02B7FFC011B
:1008E00020838BE091E0FC0120818BE091E0277F69
:1008F000FC01208331C083EB90E0FC0180818823E0
:1009000099F08BE091E0FC0120818BE091E0277F62
:10091000FC0120838BE091E0FC0120818BE091E0E1
:100920002460FC01208318C084EB90E0FC018081EE
:10093000882391F08BE091E0FC0120818BE091E035
:100940002B7FFC0120838BE091E0FC0120818BE078
:1009500091E02860FC0120830000DF91CF91FF919E
:10096000EF919F918F912F910F900BBE0F900FBE23
:100970000F901F9018951F920F920FB60F9211248F
:100980000BB60F922F938F939F93EF93FF93CF9379
:10099000DF93CDB7DEB783EB90E0FC0180818F3F22
:1009A00049F08BE091E0FC0120818BE091E02B7F0E
:1009B000FC0120830000DF91CF91FF91EF919F9187
:1009C0008F912F910F900BBE0F900FBE0F901F9025
:1009D00018951F920F920FB60F9211240BB60F921B
:1009E0002F938F939F93EF93FF93CF93DF93CDB785
:1009F000DEB784EB90E0FC0180818F3F49F08BE013
:100A000091E0FC0120818BE091E0277FFC012083B5
:100A10000000DF91CF91FF91EF919F918F912F91E6
:100A20000F900BBE0F900FBE0F901F901895CF9395
:100A3000DF93CDB7DEB78AE091E0FC0120818AE048
:100A400091E02460FC0120838AE091E0FC01208198
:100A50008AE091E02860FC0120838BE091E0FC01BA
:100A600020818BE091E02B7FFC0120838BE091E0E3
:100A7000FC0120818BE091E0277FFC01208380EB4B
:100A800090E0FC01108281EB90E023E0FC012083E8
:100A900083EB90E0FC01108284EB90E0FC0110827B
:100AA00080E790E027E0FC01208378940000DF914C
:100AB000CF910895CF93DF930F92CDB7DEB789839F
:100AC00089818C39E4F18981843609F0C4F5898102
:100AD0008823DCF084EB90E0FC0110828981082EF1
:100AE000000C990B2FEF289FA001299F500D112476
:100AF00024E630E0CA01B9010E94A405CB019C01A3
:100B000083EB90E0FC0120831AC083EB90E0FC01B2
:100B100010828981082E000C990B2FEF289FA001CD
:100B2000299F500D11242CE93FEFCA01B9010E9401
:100B3000A405CB019C0184EB90E0FC012083000024
:100B40000F90DF91CF91089597FB072E16F4009434
:100B500007D077FD09D00E94B80507FC05D03EF408
:100B6000909581959F4F0895709561957F4F089559
:100B7000AA1BBB1B51E107C0AA1FBB1FA617B707C3
:100B800010F0A61BB70B881F991F5A95A9F78095DF
:100B90009095BC01CD0108950E94000608F481E003
:100BA00008950E942C0688F09F5798F0B92F992736
:100BB000B751B0F0E1F0660F771F881F991F1AF048
:100BC000BA95C9F714C0B13091F00E944606B1E061
:100BD00008950C944606672F782F8827B85F39F060
:100BE000B93FCCF3869577956795B395D9F73EF4E1
:100BF00090958095709561957F4F8F4F9F4F089589
:100C0000990F0008550FAA0BE0E8FEEF161617061D
:100C1000E807F907C0F012161306E407F50798F085
:100C2000621B730B840B950B39F40A2661F0232B9E
:100C3000242B252B21F408950A2609F4A140A6951A
:100C40008FEF811D811D089557FD9058440F551F4A
:100C500059F05F3F71F04795880F97FB991F61F03E
:100C60009F3F79F087950895121613061406551FB5
:100C7000F2CF4695F1DF08C0161617061806991F21
:100C8000F1CF86957105610508940895E894BB2716
:100C900066277727CB0197F908950E94000608F48C
:100CA0008FEF08950E9465060C94D6060E94C80630
:100CB00038F00E94CF0620F0952311F00C94BF0667
:100CC0000C94C50611240C9447060E94240670F368
:100CD000959FC1F3950F50E0551F629FF001729FE1
:100CE000BB27F00DB11D639FAA27F00DB11DAA1FF0
:100CF000649F6627B00DA11D661F829F2227B00D3D
:100D0000A11D621F739FB00DA11D621F839FA00DC7
:100D1000611D221F749F3327A00D611D231F849F17
:100D2000600D211D822F762F6A2F11249F5750406E
:100D30009AF0F1F088234AF0EE0FFF1FBB1F661FE9
:100D4000771F881F91505040A9F79E3F510580F0B2
:100D50000C94BF060C9447065F3FE4F3983ED4F32F
:100D6000869577956795B795F795E7959F5FC1F756
:100D7000FE2B880F911D9695879597F9089597F901
:100D80009F6780E870E060E008959FEF80EC089531
:100D900000240A941616170618060906089500245A
:100DA0000A9412161306140605060895092E0394D4
:100DB000000C11F4882352F0BB0F40F4BF2B11F448
:100DC00060FF04C06F5F7F4F8F4F9F4F0895F8946F
:020DD000FFCF53
:020DD20001001E
:00000001FF
