:100000000C9472000C94A1000C94F4000C949300D6
:100010000C9493000C9493000C9493000C94930014
:100020000C9493000C9493000C9493000C94930004
:100030000C9493000C9496040C94AE040C945A0403
:100040000C9493000C9493000C9493000C949300E4
:100050000C945D050C94F4030C940B040C94BC03F9
:100060000C9493000C9493000C9493000C949300C4
:100070000C9493000C9493000C9493000C949300B4
:100080000C9493000C9493000C9493000C949300A4
:100090000C9493000C9493000C9493000C94930094
:1000A0000C9493000C9493000C9493000C94930084
:1000B0000C9493000C9493000C9493000C94930074
:1000C0000C9493000C9493000C9493000C94930064
:1000D0000C9493000C9493000C9493000C94930054
:1000E0000C94930011241FBECFEFD1E2DEBFCDBF31
:1000F00000E00CBF12E0A0E0B2E0EEE5FBE000E0C3
:100100000BBF02C007900D92A430B107D9F722E0CF
:10011000A4E0B2E001C01D92AA30B207E1F70E944C
:100120005E010C94AD050C9400007894E89AE9E621
:10013000F0E0808182608083E99A8081886080839A
:1001400008951F921FB61F9211242F938F939F9390
:100150002FEF83EF91E0215080409040E1F700C005
:100160000000109207021092060280910402909102
:100170000502039734F482E090E0909303028093A9
:10018000020280910402909105020397F9F0809198
:10019000040290910502089764F080910402909106
:1001A00005020F9734F482E090E09093030280936D
:1001B000020280910402909105020F9771F09F91C5
:1001C0008F912F911F901FBE1F90189583E090E094
:1001D0009093030280930202DACF83E690E090933B
:1001E000030280930202EBCF1F921FB61F921124CD
:1001F0002F938F939F932FEF83EF91E021508040B7
:100200009040E1F700C00000109207021092060231
:100210008091040290910502049764F08091040299
:10022000909105020F9734F482E090E090930302DE
:10023000809302028091040290910502079769F071
:1002400080910402909105020F9771F09F918F9118
:100250002F911F901FBE1F90189584E090E09093FF
:10026000030280930202ECCF83E690E090930302B6
:1002700080930202EBCF0E9406050E9495000E9427
:1002800022040E94C6040E945205269A259AEAE09A
:10029000F1E08081806180832E9A2D9AEBE0F1E07D
:1002A0008081806180832E982D980895109220017E
:1002B000E1E2F1E080818160808308950E943B014A
:1002C0000E945601EBE0F1E080818F7E8083C2E3E3
:1002D000D0E00F2EFEE6CF2ED12CF02D0BE011E05A
:1002E000EE24E394F12C0F2EF5E0AF2EB12CF02D7F
:1002F0000F2EF9E08F2E912CF02D0F2EF6E06F2EA1
:10030000712CF02D0F2EF7E04F2E512CF02D68940C
:10031000222423F8312C7BC021970E944D0582C0F6
:1003200021960E944D057EC08091020290910302A9
:10033000892B09F485C080910202909103020197F4
:1003400009F487C08091020290910302029709F498
:100350008AC08091020290910302039709F4A9C018
:100360008091020290910302049709F4C4C0809125
:10037000020290910302059709F4DFC08091020206
:1003800090910302069709F4F1C0809102029091C6
:100390000302079709F403C18091020290910302BE
:1003A000089709F417C180910202909103020997FE
:1003B00009F42DC180910202909103020A9709F479
:1003C00041C180910202909103020B9709F455C13B
:1003D00080910202909103020C9709F46BC1809105
:1003E0000202909103028336910509F482C1809143
:1003F0000202909103028436910509F495C180911F
:100400000202909103028536910509F4A8C10E9469
:100410004805282F30E0813009F47ECF22303105A5
:1004200009F47ECFD09B80CF81E08ABB8091060209
:10043000909107020196909307028093060274CF71
:1004400080E090E00E943C0480E090E00E94E404A0
:1004500072CFC6018C1B9D0B0E943C04CE014496BA
:100460000E94E4046FCF80E090E00E943C0480E0B2
:1004700090E00E94E404F80180818F7E8083809167
:10048000060290910702853F91400CF462CF809163
:100490000402909105020196909305028093040254
:1004A000F0920302E0920202F80180818061808371
:1004B00050CF80E090E00E943C0480E090E00E94F9
:1004C000E4048091060290910702853F91400CF46C
:1004D00047CF809104029091050201969093050206
:1004E00080930402B0920302A092020210920702CB
:1004F0001092060235CF80E090E00E943C0480E03C
:1005000090E00E94E4048091060290910702853FEA
:1005100091400CF42CCF8091040290910502019639
:10052000909305028093040290920302809202024B
:1005300010920702109206021ACF8CE390E00E94FC
:100540003C0486E490E00E94E404809106029091CD
:1005500007028F3E92400CF411CF7092030260921A
:100560000202109207021092060208CF80E090E08B
:100570000E943C0482E390E00E94E4048091060221
:10058000909107028B3691400CF4FFCE50920302FB
:10059000409202021092070210920602F6CE2E98A6
:1005A0002D988CE390E00E943C0486E490E00E9449
:1005B000E40480910602909107028F3591400CF47B
:1005C000EBCE3092030220920202109207021092A8
:1005D0000602E2CE80E090E00E943C0482E390E0DC
:1005E0000E94E40480910602909107028F359140A9
:1005F0000CF4D9CEF0920302E092020210920702AC
:1006000010920602F0920102E0920002CCCE8CE33E
:1006100090E00E943C0486E490E00E94E404809113
:100620000602909107028F3E92400CF4C3CE8AE0FE
:1006300090E09093030280930202109207021092BE
:100640000602B8CE82E390E00E943C0480E090E095
:100650000E94E40480910602909107028B3691403B
:100660000CF4AFCE8BE090E09093030280930202F3
:100670001092070210920602A4CE2E982D988CE3B9
:1006800090E00E943C0486E490E00E94E4048091A3
:100690000602909107028F3591400CF499CE8CE0C0
:1006A00090E090930302809302021092070210924E
:1006B00006028ECE82E390E00E943C0480E090E04F
:1006C0000E94E40480910602909107028F359140C8
:1006D0000CF485CEF0920302E0920202109207021F
:1006E0001092060282E090E0909301028093000253
:1006F00076CE80E090E00E943C0480E090E00E9492
:10070000E4048091060290910702853F91400CF429
:100710006ECE84E690E090930302809302021092E2
:1007200007021092060263CE8CE390E00E943C0424
:1007300086E490E00E94E404809106029091070212
:10074000853F91400CF45BCE85E690E090930302E8
:1007500080930202109207021092060250CE80E0AF
:1007600090E00E943C0480E090E00E94E404F801E4
:1007700080818F7E80834BCE1F921FB61F921124E3
:100780008F938BB78F93EF93FF9387B581110CC035
:1007900088B5811109C0EBE0F1E080818E7F808314
:1007A00080818D7F80830BC087B5882389F0EBE043
:1007B000F1E080818D7F8083808181608083FF91E3
:1007C000EF918F918BBF8F911F901FBE1F90189537
:1007D00088B58823A1F3EBE0F1E080818E7F8083F0
:1007E000808182608083EBCF8F938FB78F938BB79D
:1007F0008F93EF93FF9387B58F3F29F0EBE0F1E004
:1008000080818E7F8083FF91EF918F918BBF8F913D
:100810008FBF8F9118958F938FB78F938BB78F93CF
:10082000EF93FF9388B58F3F29F0EBE0F1E08081F3
:100830008D7F8083FF91EF918F918BBF8F918FBFC1
:100840008F911895EAE0F1E080818160808380815A
:1008500082608083EBE0F1E080818E7F8083808105
:100860008D7F808314BC83E085BD17BC18BC87E0F6
:1008700080936E007894089594E6980F993CC8F49C
:10088000882364F018BC282F3FEF2303C0011124F4
:1008900064E670E00E94850567BD089517BC282FA7
:1008A0003FEF2303C00111246CE97FEF0E9485050F
:1008B00068BD08951F921FB61F9211248F938BB7A6
:1008C0008F93EF93FF938091B30081110DC08091BE
:1008D000B400811109C0EBE0F1E080818B7F80835F
:1008E0008081877F80830CC08091B300882389F04A
:1008F000EBE0F1E08081877F80838081846080836A
:10090000FF91EF918F918BBF8F911F901FBE1F9012
:1009100018958091B400882399F3EBE0F1E0808191
:100920008B7F8083808188608083EACF8F938FB7AD
:100930008F938BB78F93EF93FF938091B3008F3F8B
:1009400029F0EBE0F1E080818B7F8083FF91EF91D4
:100950008F918BBF8F918FBF8F9118958F938FB78A
:100960008F938BB78F93EF93FF938091B4008F3F5A
:1009700029F0EBE0F1E08081877F8083FF91EF91A8
:100980008F918BBF8F918FBF8F911895EAE0F1E027
:10099000808184608083808188608083EBE0F1E0E7
:1009A00080818B7F80838081877F80831092B000DD
:1009B00083E08093B1001092B3001092B40087E0FE
:1009C000809370007894089594E6980F993CE8F429
:1009D000882374F01092B400282F3FEF2303C00146
:1009E000112464E670E00E9485056093B3000895C9
:1009F0001092B300282F3FEF2303C00111246CE9AC
:100A00007FEF0E9485056093B400089581B18A7FCD
:100A100081B982B1856082B9089580B190B180FDBD
:100A20000DC092FF0BC0009BFECF029930C081E049
:100A300090E09093090280930802089580B190B1EC
:100A400082FD0DC090FF0BC0029BFECF00991FC01E
:100A500082E090E09093090280930802089580B1AB
:100A600090B181709470892B811111C0009BFECFD1
:100A7000029907C081E090E09093090280930802F8
:100A8000089582E090E0909309028093080208950F
:100A90008091080290910902089510920902109223
:100AA00008020895E1E8F0E0808181608083EFE64C
:100AB000F0E080818160808308951F920F920FB6CD
:100AC0000F9211240BB60F922F933F934F935F9386
:100AD0006F937F938F939F93AF93BF93EF93FF9306
:100AE0000E940D05FF91EF91BF91AF919F918F9162
:100AF0007F916F915F914F913F912F910F900BBE1E
:100B00000F900FBE0F901F90189597FB072E16F4AD
:100B1000009407D077FD09D00E94990507FC05D005
:100B20003EF4909581959F4F0895709561957F4F04
:100B30000895AA1BBB1B51E107C0AA1FBB1FA61724
:100B4000B70710F0A61BB70B881F991F5A95A9F776
:0E0B500080959095BC01CD010895F894FFCFDB
:040B5E000200010090
:00000001FF
