:100000000C9472000C94C2000C94C9010C949300DF
:100010000C9493000C9493000C9493000C94930014
:100020000C9493000C9493000C9493000C94930004
:100030000C9493000C94C7060C94DF060C948B066A
:100040000C9493000C9493000C9493000C949300E4
:100050000C948E070C9425060C943C060C94ED052C
:100060000C9493000C9493000C9493000C949300C4
:100070000C9493000C9493000C9493000C949300B4
:100080000C9493000C9493000C9493000C949300A4
:100090000C9493000C9493000C9493000C94930094
:1000A0000C9493000C9493000C9493000C94930084
:1000B0000C9493000C9493000C9493000C94930074
:1000C0000C9493000C9493000C9493000C94930064
:1000D0000C9493000C9493000C9493000C94930054
:1000E0000C94930011241FBECFEFD1E2DEBFCDBF31
:1000F00000E00CBF12E0A0E0B2E0E6EFF1E100E0CA
:100100000BBF02C007900D92A430B107D9F722E0CF
:10011000A4E0B2E001C01D92AA30B207E1F70E944C
:1001200031030C94F9080C940000CF93DF93CDB702
:10013000DEB778948DE390E0FC0120818DE390E0C0
:100140002160FC01208389E690E0FC01208189E6A2
:1001500090E02260FC0120838DE390E0FC0120818F
:100160008DE390E02260FC01208389E690E0FC01B1
:10017000208189E690E02860FC0120830000DF9167
:10018000CF9108951F920F920FB60F9211240BB6C4
:100190000F922F933F934F935F936F937F938F9320
:1001A0009F93AF93BF93EF93FF93CF93DF93CDB71D
:1001B000DEB7A297DEBFCDBF80E090E0A0E2B2E460
:1001C00089839A83AB83BC8320E030E04AE755E41F
:1001D00069817A818B819C810E9464086B8B7C8B06
:1001E0008D8B9E8B8B899C89AD89BE898D839E83E7
:1001F000AF83B88720E030E040E85FE36D817E8127
:100200008F8198850E94DE0788232CF481E090E09E
:100210009A87898755C020E03FEF4FE757E46D810B
:100220007E818F8198850E945F088823D9F1D4F15F
:1002300020E030E040E251E469817A818B819C8149
:100240000E9464086F8B788F898F9A8F8F89988D21
:10025000A98DBA8D8F87988BA98BBA8B6F8578897A
:1002600089899A890E94E3076B8F7C8F8D8F9E8F7F
:10027000AB8DBC8DBA87A98710C080E991E09C87BF
:100280008B878B859C850197F1F79C878B87000076
:1002900089859A8501979A87898789859A850097A4
:1002A00061F719C06D817E818F8198850E94E30777
:1002B0006F8F78A389A39AA38F8D98A19A87898736
:1002C00089859A859E878D878D859E850197F1F713
:1002D0009E878D8700001092050210920402809183
:1002E0000602909107028230910509F034F482E011
:1002F00090E0909301028093000280910602909119
:1003000007028330910531F483E090E0909301027D
:100310008093000280910602909107028730910538
:1003200079F074F080910602909107028E30910569
:1003300009F034F482E090E090930102809300028F
:1003400080910602909107028F30910531F483E687
:1003500090E090930102809300020000A2960FB6F5
:10036000F894DEBF0FBECDBFDF91CF91FF91EF912B
:10037000BF91AF919F918F917F916F915F914F91BD
:100380003F912F910F900BBE0F900FBE0F901F90BB
:1003900018951F920F920FB60F9211240BB60F9261
:1003A0002F933F934F935F936F937F938F939F937D
:1003B000AF93BF93EF93FF93CF93DF93CDB7DEB7A8
:1003C000A297DEBFCDBF80E090E0A0E2B2E48983D7
:1003D0009A83AB83BC8320E030E04AE755E469812F
:1003E0007A818B819C810E9464086B8B7C8B8D8BC6
:1003F0009E8B8B899C89AD89BE898D839E83AF83BB
:10040000B88720E030E040E85FE36D817E818F8136
:1004100098850E94DE0788232CF481E090E09A877B
:10042000898755C020E03FEF4FE757E46D817E811B
:100430008F8198850E945F088823D9F1D4F120E04C
:1004400030E040E251E469817A818B819C810E9495
:1004500064086F8B788F898F9A8F8F89988DA98D7B
:10046000BA8D8F87988BA98BBA8B6F85788989898C
:100470009A890E94E3076B8F7C8F8D8F9E8FAB8D47
:10048000BC8DBA87A98710C080E991E09C878B87D3
:100490008B859C850197F1F79C878B870000898568
:1004A0009A8501979A87898789859A85009761F748
:1004B00019C06D817E818F8198850E94E3076F8FBF
:1004C00078A389A39AA38F8D98A19A878987898514
:1004D0009A859E878D878D859E850197F1F79E87EA
:1004E0008D8700001092050210920402809106028E
:1004F000909107028330910579F074F080910602A3
:10050000909107028E30910509F034F482E090E07A
:10051000909301028093000280910602909107025D
:100520008730910531F484E090E09093010280934C
:10053000000280910602909107028F30910531F4FC
:1005400083E690E090930102809300020000A2965F
:100550000FB6F894DEBF0FBECDBFDF91CF91FF91F4
:10056000EF91BF91AF919F918F917F916F915F912B
:100570004F913F912F910F900BBE0F900FBE0F9098
:100580001F901895CF93DF93CDB7DEB70E94370742
:100590000E9495000E9453060E94F7060E9483075E
:1005A00084E290E0FC01208184E290E02064FC0180
:1005B000208384E290E0FC01208184E290E02062CC
:1005C000FC0120838AE091E0FC0120818AE091E037
:1005D0002061FC01208385E290E0FC01208185E21E
:1005E00090E02064FC01208385E290E0FC01208102
:1005F00085E290E02062FC0120838BE091E0FC0129
:1006000020818BE091E02061FC01208385E290E075
:10061000FC01208185E290E02F7BFC01208385E2B4
:1006200090E0FC01208185E290E02F7DFC01208399
:100630000000DF91CF910895CF93DF93CDB7DEB760
:1006400080E291E0FC01108281E291E0FC012081D6
:1006500081E291E02160FC0120830000DF91CF91D5
:100660000895CF93DF9300D000D000D00F92CDB784
:10067000DEB70E94C2020E941C031E821D8281E01E
:1006800090E098878F838BE091E0FC0120818BE0E4
:1006900091E02F7EFC0120831A82198282E390E090
:1006A0009C838B8382E390E09A8789870E947907F5
:1006B000882F90E09A83898389819A81813091057E
:1006C00049F41A8219828B819C8101979C838B83C8
:1006D0000E947E0789819A818230910549F41A82AD
:1006E00019828B819C8101969C838B830E947E075B
:1006F0008AE390E0FC018081882F90E08170992747
:10070000009771F08AE390E021E0FC012083809162
:1007100004029091050201969093050280930402D1
:100720008091000290910102009741F480E090E0F6
:100730000E946D0680E090E00E9415078091000203
:100740009091010281309105D9F429853A858B81F8
:100750009C81A901481B590BCA01CC960E946D06C9
:1007600029853A858B819C81F901E81BF90BCF0122
:1007700026E430E0A901481B590BCA010E94150765
:1007800080910002909101028230910591F580E004
:1007900090E00E946D0680E090E00E9415078BE0DB
:1007A00091E0FC0120818BE091E02F7EFC01208311
:1007B0008091040290910502843FF1E09F07C9F007
:1007C000C4F080910602909107020196909307026F
:1007D0008093060281E090E09093010280930002F2
:1007E0008BE091E0FC0120818BE091E02061FC0135
:1007F000208380910002909101028330910521F5C0
:1008000080E090E00E946D0680E090E00E94150775
:100810008091040290910502843FF1E09F07A1F0CE
:100820009CF0809106029091070201969093070236
:100830008093060285E090E090930102809300028D
:100840001092050210920402809100029091010220
:100850008430910521F580E090E00E946D0680E0F3
:1008600090E00E9415078091040290910502843F58
:1008700021E09207A1F09CF080910602909107027E
:100880000196909307028093060289E090E090938E
:1008900001028093000210920502109204028091DE
:1008A00000029091010285309105D9F48CE390E02B
:1008B0000E946D0686E490E00E9415078091040274
:1008C000909105028E3E42E0940759F054F086E084
:1008D00090E0909301028093000210920502109222
:1008E0000402809100029091010286309105D9F4B2
:1008F00080E090E00E946D0682E390E00E94150780
:1009000080910402909105028A3651E0950759F0D2
:1009100054F087E090E090930102809300021092DF
:10092000050210920402809100029091010287302A
:10093000910569F585E290E0FC01208185E290E077
:100940002F7BFC01208385E290E0FC01208185E281
:1009500090E02F7DFC0120838CE390E00E946D06E7
:1009600086E490E00E9415078091040290910502B0
:100970008E35F1E09F0759F054F088E090E09093B5
:1009800001028093000210920502109204028091ED
:100990000002909101028830910509F580E090E015
:1009A0000E946D0682E390E00E9415078091040288
:1009B000909105028E3521E0920789F084F081E064
:1009C00090E0909301028093000210920502109231
:1009D000040281E090E090930302809302028091F0
:1009E00000029091010289309105D9F48CE390E0E6
:1009F0000E946D0686E490E00E9415078091040233
:100A0000909105028E3E42E0940759F054F08AE03E
:100A100090E09093010280930002109205021092E0
:100A2000040280910002909101028A309105D9F46C
:100A300082E390E00E946D0680E090E00E9415073E
:100A400080910402909105028A3651E0950759F091
:100A500054F08BE090E0909301028093000210929A
:100A600005021092040280910002909101028B30E5
:100A7000910569F585E290E0FC01208185E290E036
:100A80002F7BFC01208385E290E0FC01208185E240
:100A900090E02F7DFC0120838CE390E00E946D06A6
:100AA00086E490E00E94150780910402909105026F
:100AB0008E35F1E09F0759F054F08CE090E0909370
:100AC00001028093000210920502109204028091AC
:100AD0000002909101028C30910509F582E390E0CB
:100AE0000E946D0680E090E00E941507809104024C
:100AF000909105028E3521E0920789F084F081E023
:100B000090E09093010280930002109205021092EF
:100B1000040282E090E090930302809302028091AD
:100B200000029091010283369105D9F480E090E0B3
:100B30000E946D0680E090E00E94150780910402FB
:100B400090910502843F41E0940759F054F084E607
:100B500090E090930102809300021092050210929F
:100B60000402809100029091010284369105D9F42B
:100B70008CE390E00E946D0686E490E00E941507E9
:100B80008091040290910502843F51E0950759F04D
:100B900054F085E690E09093010280930002109259
:100BA00005021092040280910002909101028536A4
:100BB000910509F07BCD80E090E00E946D0680E019
:100BC00090E00E9415078BE091E0FC0120818BE012
:100BD00091E02F7EFC01208369CD1F921FB61F92EA
:100BE00011248F938BB78F93EF93FF9387B5811168
:100BF0000CC088B5811109C0EBE0F1E080818E7FE7
:100C0000808380818D7F80830BC087B5882389F0A6
:100C1000EBE0F1E080818D7F808380818160808343
:100C2000FF91EF918F918BBF8F911F901FBE1F90EF
:100C3000189588B58823A1F3EBE0F1E080818E7FE1
:100C40008083808182608083EBCF8F938FB78F9377
:100C50008BB78F93EF93FF9387B58F3F29F0EBE02E
:100C6000F1E080818E7F8083FF91EF918F918BBF28
:100C70008F918FBF8F9118958F938FB78F938BB76D
:100C80008F93EF93FF9388B58F3F29F0EBE0F1E06E
:100C900080818D7F8083FF91EF918F918BBF8F91AA
:100CA0008FBF8F911895EAE0F1E0808181608083A9
:100CB000808182608083EBE0F1E080818E7F8083A1
:100CC00080818D7F808314BC83E085BD17BC18BCF8
:100CD00087E080936E007894089594E6980F993C8D
:100CE000C8F4882364F018BC282F3FEF2303C00109
:100CF000112464E670E00E94B60767BD089517BC32
:100D0000282F3FEF2303C00111246CE97FEF0E94DD
:100D1000B60768BD08951F921FB61F9211248F93C6
:100D20008BB78F93EF93FF938091B30081110DC028
:100D30008091B400811109C0EBE0F1E080818B7FEC
:100D400080838081877F80830CC08091B30088235B
:100D500089F0EBE0F1E08081877F8083808184608F
:100D60008083FF91EF918F918BBF8F911F901FBE5A
:100D70001F9018958091B400882399F3EBE0F1E07F
:100D800080818B7F8083808188608083EACF8F938E
:100D90008FB78F938BB78F93EF93FF938091B300AF
:100DA0008F3F29F0EBE0F1E080818B7F8083FF9122
:100DB000EF918F918BBF8F918FBF8F9118958F93EC
:100DC0008FB78F938BB78F93EF93FF938091B4007E
:100DD0008F3F29F0EBE0F1E08081877F8083FF91F6
:100DE000EF918F918BBF8F918FBF8F911895EAE014
:100DF000F1E0808184608083808188608083EBE083
:100E0000F1E080818B7F80838081877F8083109257
:100E1000B00083E08093B1001092B3001092B40050
:100E200087E0809370007894089594E6980F993C39
:100E3000E8F4882374F01092B400282F3FEF2303C6
:100E4000C001112464E670E00E94B6076093B3000D
:100E500008951092B300282F3FEF2303C0011124FF
:100E60006CE97FEF0E94B6076093B400089581B1EA
:100E70008A7F81B982B1856082B9089580B190B1CD
:100E800080FD0DC092FF0BC0009BFECF029930C0C9
:100E900081E090E09093090280930802089580B168
:100EA00090B182FD0DC090FF0BC0029BFECF009958
:100EB0001FC082E090E09093090280930802089599
:100EC00080B190B181709470892B811111C0009B09
:100ED000FECF029907C081E090E0909309028093D1
:100EE0000802089582E090E090930902809308023E
:100EF00008958091080290910902089510920902C4
:100F0000109208020895E1E8F0E08081816080831A
:100F1000EFE6F0E080818160808308951F920F9258
:100F20000FB60F9211240BB60F922F933F934F934E
:100F30005F936F937F938F939F93AF93BF93EF9341
:100F4000FF930E943E07FF91EF91BF91AF919F9158
:100F50008F917F916F915F914F913F912F910F9062
:100F60000BBE0F900FBE0F901F90189597FB072E8A
:100F700016F4009407D077FD09D00E94CA0707FC39
:100F800005D03EF4909581959F4F08957095619599
:100F90007F4F0895AA1BBB1B51E107C0AA1FBB1FAF
:100FA000A617B70710F0A61BB70B881F991F5A95F5
:100FB000A9F780959095BC01CD0108950E94120873
:100FC00008F481E008950E943E0888F09F5798F049
:100FD000B92F9927B751B0F0E1F0660F771F881F3E
:100FE000991F1AF0BA95C9F714C0B13091F00E9458
:100FF0005808B1E008950C945808672F782F882777
:10100000B85F39F0B93FCCF3869577956795B3957E
:10101000D9F73EF490958095709561957F4F8F4FED
:101020009F4F0895990F0008550FAA0BE0E8FEEFB7
:1010300016161706E807F907C0F012161306E4079C
:10104000F50798F0621B730B840B950B39F40A2695
:1010500061F0232B242B252B21F408950A2609F473
:10106000A140A6958FEF811D811D089557FD9058D1
:10107000440F551F59F05F3F71F04795880F97FB5C
:10108000991F61F09F3F79F0879508951216130616
:101090001406551FF2CF4695F1DF08C01616170645
:1010A0001806991FF1CF869571056105089408957A
:1010B000E894BB2766277727CB0197F908950E940C
:1010C000120808F48FEF08950E9477080C94E8083E
:1010D0000E94DA0838F00E94E10820F0952311F010
:1010E0000C94D1080C94D70811240C9459080E9430
:1010F000360870F3959FC1F3950F50E0551F629F1E
:10110000F001729FBB27F00DB11D639FAA27F00D60
:10111000B11DAA1F649F6627B00DA11D661F829F87
:101120002227B00DA11D621F739FB00DA11D621F6C
:10113000839FA00D611D221F749F3327A00D611D89
:10114000231F849F600D211D822F762F6A2F11246B
:101150009F5750409AF0F1F088234AF0EE0FFF1F9E
:10116000BB1F661F771F881F91505040A9F79E3FF5
:10117000510580F00C94D1080C9459085F3FE4F3BA
:10118000983ED4F3869577956795B795F795E7954B
:101190009F5FC1F7FE2B880F911D9695879597F954
:1011A000089597F99F6780E870E060E008959FEFE9
:1011B00080EC089500240A941616170618060906EE
:1011C000089500240A9412161306140605060895BD
:1011D000092E0394000C11F4882352F0BB0F40F445
:1011E000BF2B11F460FF04C06F5F7F4F8F4F9F4F85
:0611F0000895F894FFCF02
:0411F60001000200F2
:00000001FF
