:100000000C9472000C947E000C947E000C947E0084
:100010000C947E000C947E000C947E000C947E0068
:100020000C947E000C947E000C947E000C947E0058
:100030000C947E000C9449030C9461030C940D0302
:100040000C947E000C947E000C947E000C947E0038
:100050000C947E000C9424020C9452020C94B50172
:100060000C947E000C947E000C947E000C947E0018
:100070000C947E000C947E000C947E000C947E0008
:100080000C947E000C947E000C947E000C947E00F8
:100090000C947E000C947E000C947E000C947E00E8
:1000A0000C947E000C947E000C947E000C947E00D8
:1000B0000C947E000C947E000C947E000C947E00C8
:1000C0000C947E000C947E000C947E000C947E00B8
:1000D0000C947E000C947E000C947E000C947E00A8
:1000E0000C947E0011241FBECFEFD1E2DEBFCDBF46
:1000F00000E00CBF0E94D7000C94E1030C940000B8
:10010000CF93DF93CDB7DEB70E9480020E947903C0
:1001100084E290E0FC01208184E290E02064FC0114
:10012000208385E290E0FC01208185E290E020645C
:10013000FC01208384E290E0FC01208184E290E0D5
:100140002062FC01208385E290E0FC01208185E2B1
:1001500090E02062FC01208385E290E0FC01208198
:1001600085E290E02F7BFC01208385E290E0FC019A
:10017000208185E290E02F7DFC0120830000DF914B
:10018000CF910895CF93DF93CDB7DEB780E291E0B2
:10019000FC01108281E291E0FC01208181E291E08A
:1001A0002160FC0120830000DF91CF910895CF935F
:1001B000DF9300D000D00F920F92CDB7DEB70E9430
:1001C00080000E94C2001A8219821C821B821E8239
:1001D0001D8281E090E098878F838AE390E0FC01A4
:1001E0008081882F90E081709927009751F08AE3F1
:1001F00090E021E0FC0120838B819C8101969C830F
:100200008B8389819A81009759F58F819885009712
:1002100039F185E290E0FC01208185E290E02F7BBE
:10022000FC01208385E290E0FC01208185E290E0E2
:100230002F7DFC0120838DE290E00E94C30282E3C7
:1002400090E00E9497038B819C81823EF4E09F079F
:1002500039F034F081E090E09A8389831C821B821C
:1002600089819A818130910539F585E290E0FC0120
:10027000208185E290E02064FC01208385E290E00B
:10028000FC01208185E290E02F7DFC0120838EEC33
:100290009FEF0E94C30282E390E00E9497038B814C
:1002A0009C81843FF1E09F0739F034F082E090E0D8
:1002B0009A8389831C821B8289819A81823091056D
:1002C00039F585E290E0FC01208185E290E02F7B0A
:1002D000FC01208385E290E0FC01208185E290E032
:1002E0002F7DFC01208382E390E00E94C30282E321
:1002F00090E00E9497038B819C81823EF4E09F07EF
:1003000039F034F083E090E09A8389831C821B8269
:1003100089819A818330910509F05FCF85E290E071
:10032000FC01208185E290E02F7BFC01208385E2A7
:1003300090E0FC01208185E290E02062FC012083B6
:100340008CE99FEF0E94C30284E690E00E9497032D
:100350008B819C81843FF1E09F0709F00CF43DCF35
:100360001A8219821C821B8238CF1F920F920FB6FD
:100370000F9211240BB60F922F938F939F93EF93AD
:10038000FF93CF93DF93CDB7DEB787E490E0FC0116
:1003900080818823C9F488E490E0FC01808188236F
:1003A00099F48BE091E0FC0120818BE091E02E7FBD
:1003B000FC0120838BE091E0FC0120818BE091E047
:1003C0002D7FFC01208331C087E490E0FC01808117
:1003D000882399F08BE091E0FC0120818BE091E093
:1003E0002D7FFC0120838BE091E0FC0120818BE0DC
:1003F00091E02160FC01208318C088E490E0FC01BA
:100400008081882391F08BE091E0FC0120818BE0DA
:1004100091E02E7FFC0120838BE091E0FC012081A4
:100420008BE091E02260FC0120830000DF91CF91FE
:10043000FF91EF919F918F912F910F900BBE0F9095
:100440000FBE0F901F9018951F920F920FB60F922C
:1004500011240BB60F922F938F939F93EF93FF93DB
:10046000CF93DF93CDB7DEB787E490E0FC018081C6
:100470008F3F49F08BE091E0FC0120818BE091E01F
:100480002E7FFC0120830000DF91CF91FF91EF913F
:100490009F918F912F910F900BBE0F900FBE0F90D9
:1004A0001F9018951F920F920FB60F9211240BB642
:1004B0000F922F938F939F93EF93FF93CF93DF939D
:1004C000CDB7DEB788E490E0FC0180818F3F49F032
:1004D0008BE091E0FC0120818BE091E02D7FFC011D
:1004E00020830000DF91CF91FF91EF919F918F9139
:1004F0002F910F900BBE0F900FBE0F901F9018956D
:10050000CF93DF93CDB7DEB78AE091E0FC01208185
:100510008AE091E02160FC0120838AE091E0FC0107
:1005200020818AE091E02260FC0120838BE091E051
:10053000FC0120818BE091E02E7FFC0120838BE089
:1005400091E0FC0120818BE091E02D7FFC01208374
:1005500084E490E0FC01108285E490E023E0FC015B
:10056000208387E490E0FC01108288E490E0FC01A5
:1005700010828EE690E027E0FC0120837894000052
:10058000DF91CF910895CF93DF930F92CDB7DEB770
:10059000898389818C39E4F18981843609F0C4F535
:1005A00089818823DCF088E490E0FC011082898155
:1005B000082E000C990B2FEF289FA001299F500DAA
:1005C000112424E630E0CA01B9010E94B903CB012D
:1005D0009C0187E490E0FC0120831AC087E490E04E
:1005E000FC0110828981082E000C990B2FEF289FA7
:1005F000A001299F500D11242CE93FEFCA01B90138
:100600000E94B903CB019C0188E490E0FC012083A7
:1006100000000F90DF91CF9108951F921FB61F9297
:1006200011248F938BB78F93EF93FF938091B30037
:1006300081110DC08091B400811109C0EBE0F1E09F
:1006400080818B7F80838081877F80830CC08091B5
:10065000B300882389F0EBE0F1E08081877F80831D
:10066000808184608083FF91EF918F918BBF8F9108
:100670001F901FBE1F9018958091B400882399F396
:10068000EBE0F1E080818B7F8083808188608083D4
:10069000EACF8F938FB78F938BB78F93EF93FF939F
:1006A0008091B3008F3F29F0EBE0F1E080818B7FF8
:1006B0008083FF91EF918F918BBF8F918FBF8F912F
:1006C00018958F938FB78F938BB78F93EF93FF937B
:1006D0008091B4008F3F29F0EBE0F1E08081877FCB
:1006E0008083FF91EF918F918BBF8F918FBF8F91FF
:1006F0001895EAE0F1E080818460808380818860E1
:100700008083EBE0F1E080818B7F80838081877F35
:1007100080831092B00083E08093B1001092B30008
:100720001092B40087E0809370007894089594E666
:10073000980F993CE8F4882374F01092B400282FA5
:100740003FEF2303C001112464E670E00E94B90367
:100750006093B30008951092B300282F3FEF230356
:10076000C00111246CE97FEF0E94B9036093B400CB
:10077000089597FB072E16F4009407D077FD09D053
:100780000E94CD0307FC05D03EF4909581959F4FC4
:100790000895709561957F4F0895AA1BBB1B51E189
:1007A00007C0AA1FBB1FA617B70710F0A61BB70BE1
:1007B000881F991F5A95A9F780959095BC01CD0186
:0607C0000895F894FFCF3C
:00000001FF
