:100000000C9472000C94C2000C94C9010C949300DF
:100010000C9493000C9493000C9493000C94930014
:100020000C9493000C9493000C9493000C94930004
:100030000C9493000C9402080C9430080C949307D1
:100040000C9493000C9493000C9493000C949300E4
:100050000C9493000C94AA060C94D8060C943B06BE
:100060000C9493000C9493000C9493000C949300C4
:100070000C9493000C9493000C9493000C949300B4
:100080000C9493000C9493000C9493000C949300A4
:100090000C9493000C9493000C9493000C94930094
:1000A0000C9493000C9493000C9493000C94930084
:1000B0000C9493000C9493000C9493000C94930074
:1000C0000C9493000C9493000C9493000C94930064
:1000D0000C9493000C9493000C9493000C94930054
:1000E0000C94930011241FBECFEFD1E2DEBFCDBF31
:1000F00000E00CBF12E0A0E0B2E0E0E6F4E100E0D6
:100100000BBF02C007900D92A630B107D9F722E0CD
:10011000A6E0B2E001C01D92A830B207E1F70E944C
:100120002D030C942E0A0C940000CF93DF93CDB7CF
:10013000DEB778948DE390E0FC0120818DE390E0C0
:100140002160FC01208389E690E0FC01208189E6A2
:1001500090E02260FC0120838DE390E0FC0120818F
:100160008DE390E02260FC01208389E690E0FC01B1
:10017000208189E690E02860FC0120830000DF9167
:10018000CF9108951F920F920FB60F9211240BB6C4
:100190000F922F933F934F935F936F937F938F9320
:1001A0009F93AF93BF93EF93FF93CF93DF93CDB71D
:1001B000DEB7A297DEBFCDBF80E090E0A0E2B2E460
:1001C00089839A83AB83BC8320E030E04AE755E41F
:1001D00069817A818B819C810E9499096B8B7C8BD0
:1001E0008D8B9E8B8B899C89AD89BE898D839E83E7
:1001F000AF83B88720E030E040E85FE36D817E8127
:100200008F8198850E94130988232CF481E090E067
:100210009A87898755C020E03FEF4FE757E46D810B
:100220007E818F8198850E9494098823D9F1D4F129
:1002300020E030E040E251E469817A818B819C8149
:100240000E9499096F8B788F898F9A8F8F89988DEB
:10025000A98DBA8D8F87988BA98BBA8B6F8578897A
:1002600089899A890E9418096B8F7C8F8D8F9E8F48
:10027000AB8DBC8DBA87A98710C080E991E09C87BF
:100280008B878B859C850197F1F79C878B87000076
:1002900089859A8501979A87898789859A850097A4
:1002A00061F719C06D817E818F8198850E94180940
:1002B0006F8F78A389A39AA38F8D98A19A87898736
:1002C00089859A859E878D878D859E850197F1F713
:1002D0009E878D870000109207021092060280917F
:1002E0000202909103028230910509F034F482E019
:1002F00090E090930102809300028091020290911D
:1003000003028330910531F483E090E09093010281
:100310008093000280910202909103028730910540
:1003200079F074F080910202909103028E30910571
:1003300009F034F482E090E090930102809300028F
:1003400080910202909103028F30910531F483E68F
:1003500090E090930102809300020000A2960FB6F5
:10036000F894DEBF0FBECDBFDF91CF91FF91EF912B
:10037000BF91AF919F918F917F916F915F914F91BD
:100380003F912F910F900BBE0F900FBE0F901F90BB
:1003900018951F920F920FB60F9211240BB60F9261
:1003A0002F933F934F935F936F937F938F939F937D
:1003B000AF93BF93EF93FF93CF93DF93CDB7DEB7A8
:1003C000A297DEBFCDBF80E090E0A0E2B2E48983D7
:1003D0009A83AB83BC8320E030E04AE755E469812F
:1003E0007A818B819C810E9499096B8B7C8B8D8B90
:1003F0009E8B8B899C89AD89BE898D839E83AF83BB
:10040000B88720E030E040E85FE36D817E818F8136
:1004100098850E94130988232CF481E090E09A8744
:10042000898755C020E03FEF4FE757E46D817E811B
:100430008F8198850E9494098823D9F1D4F120E016
:1004400030E040E251E469817A818B819C810E9495
:1004500099096F8B788F898F9A8F8F89988DA98D45
:10046000BA8D8F87988BA98BBA8B6F85788989898C
:100470009A890E9418096B8F7C8F8D8F9E8FAB8D10
:10048000BC8DBA87A98710C080E991E09C878B87D3
:100490008B859C850197F1F79C878B870000898568
:1004A0009A8501979A87898789859A85009761F748
:1004B00019C06D817E818F8198850E9418096F8F88
:1004C00078A389A39AA38F8D98A19A878987898514
:1004D0009A859E878D878D859E850197F1F79E87EA
:1004E0008D8700001092070210920602809102028E
:1004F000909103028330910579F074F080910202AB
:10050000909103028E30910509F034F482E090E07E
:100510009093010280930002809102029091030265
:100520008730910531F484E090E09093010280934C
:10053000000280910202909103028F30910531F404
:1005400083E690E090930102809300020000A2965F
:100550000FB6F894DEBF0FBECDBFDF91CF91FF91F4
:10056000EF91BF91AF919F918F917F916F915F912B
:100570004F913F912F910F900BBE0F900FBE0F9098
:100580001F901895CF93DF93CDB7DEB70E949500EB
:100590000E9406070E945E0884E290E0FC01208130
:1005A00084E290E02064FC01208385E290E0FC017D
:1005B000208185E290E02064FC01208384E290E0C9
:1005C000FC01208184E290E02062FC01208385E22E
:1005D00090E0FC01208185E290E02062FC01208314
:1005E0008AE091E0FC0120818AE091E02061FC0139
:1005F00020838BE091E0FC0120818BE091E0206181
:10060000FC01208385E290E0FC01208185E290E0FE
:100610002F7BFC01208385E290E0FC01208185E2B4
:1006200090E02F7DFC0120830000DF91CF910895A1
:10063000CF93DF93CDB7DEB780E291E0FC0110826B
:1006400081E291E0FC01208181E291E02160FC01E6
:1006500020830000DF91CF910895CF93DF93CDB732
:10066000DEB7A6970FB6F894DEBF0FBECDBF0E94CF
:10067000C2020E9418031A82198281E090E09C83D2
:100680008B838BE091E0DC012C918BE091E02F7E5D
:10069000FC01208380E090E0AAE7B5E48D839E838F
:1006A000AF83B88720E030E04AE755E46D817E8172
:1006B0008F8198850E9499096F8B788F898F9A8F87
:1006C0008F89988DA98DBA8D89879A87AB87BC87CA
:1006D00020E030E040E85FE369857A858B859C8582
:1006E0000E94130988232CF481E090E09E878D8777
:1006F00055C020E03FEF4FE757E469857A858B8549
:100700009C850E9494098823D9F1D4F120E030E03F
:1007100040E251E46D817E818F8198850E94990924
:100720006B8F7C8F8D8F9E8F8B8D9C8DAD8DBE8DB5
:100730008B8B9C8BAD8BBE8B6B897C898D899E89C5
:100740000E9418096F8F78A389A39AA3AF8DB8A1CF
:10075000BE87AD8710C080E991E0988B8F878F8529
:1007600098890197F1F7988B8F8700008D859E857A
:1007700001979E878D878D859E85009761F719C0AB
:1007800069857A858B859C850E9418096BA37CA35B
:100790008DA39EA3EBA1FCA1FE87ED878D859E8591
:1007A0009A8B898B89899A890197F1F79A8B898B22
:1007B00000008AE390E0DC018C91882F90E081704A
:1007C0009927009771F08AE390E021E0FC012083F3
:1007D0008091060290910702019690930702809300
:1007E00006028091000290910102009741F480E09E
:1007F00090E00E94490780E090E00E94A10880916B
:100800000002909101028130910541F483E290E071
:100810000E94490788E290E00E94A10880910002AE
:10082000909101028230910591F580E090E00E9464
:10083000490780E090E00E94A1088BE091E0DC0194
:100840002C918BE091E02F7EFC01208380910602A9
:1008500090910702843FF1E09F07C9F0C4F08091B6
:100860000202909103020196909303028093020288
:1008700081E090E090930102809300028BE091E090
:10088000DC012C918BE091E02061FC0120838091C0
:100890000002909101028330910521F580E090E003
:1008A0000E94490780E090E00E94A1088091060222
:1008B00090910702843FF1E09F07A1F09CF08091A6
:1008C0000202909103020196909303028093020228
:1008D00085E090E09093010280930002109207025D
:1008E00010920602809100029091010284309105DD
:1008F00021F580E090E00E94490780E090E00E94AE
:10090000A1088091060290910702843F21E092079E
:10091000A1F09CF0809102029091030201969093C5
:1009200003028093020289E090E090930102809399
:10093000000210920702109206028091000290912C
:10094000010285309105D9F483E290E00E944907C5
:1009500088E290E00E94A10880910602909107022F
:100960008E3EA2E09A0759F054F086E090E0909312
:1009700001028093000210920702109206028091F9
:1009800000029091010286309105D9F480E090E058
:100990000E94490782E390E00E94A108809106022C
:1009A000909107028A36B1E09B0759F054F087E036
:1009B00090E090930102809300021092070210923F
:1009C000060280910002909101028730910569F53D
:1009D00085E290E0FC01208185E290E02F7BDC0144
:1009E0002C9385E290E0FC01208185E290E02F7D50
:1009F000DC012C9383E290E00E94490788E290E0BA
:100A00000E94A10880910602909107028E35B1E004
:100A10009B0759F054F088E090E090930102809396
:100A2000000210920702109206028091000290913B
:100A300001028830910509F580E090E00E944907A5
:100A400082E390E00E94A108809106029091070243
:100A50008E35E1E09E0789F084F081E090E090938C
:100A6000010280930002109207021092060281E0B8
:100A700090E090930502809304028091000290918F
:100A8000010289309105D9F483E290E00E94490780
:100A900088E290E00E94A1088091060290910702EE
:100AA0008E3EF2E09F0759F054F08AE090E0909378
:100AB00001028093000210920702109206028091B8
:100AC0000002909101028A309105D9F482E390E00E
:100AD0000E94490780E090E00E94A10880910602F0
:100AE000909107028A3621E0920759F054F08BE08A
:100AF00090E09093010280930002109207021092FE
:100B0000060280910002909101028B30910569F5F7
:100B100085E290E0DC012C9185E290E02F7BFC01E6
:100B2000208385E290E0DC012C9185E290E02F7D2E
:100B3000FC01208383E290E00E94490788E290E074
:100B40000E94A10880910602909107028E35F1E083
:100B50009F0759F054F08CE090E09093010280934D
:100B600000021092070210920602809100029091FA
:100B700001028C30910509F582E390E00E9449075B
:100B800080E090E00E94A108809106029091070207
:100B90008E3521E0920789F084F081E090E0909317
:100BA000010280930002109207021092060282E076
:100BB00090E090930502809304028091000290914E
:100BC000010283369105D9F480E090E00E94490744
:100BD00080E090E00E94A1088091060290910702B7
:100BE000843FA1E09A0759F054F084E690E0909396
:100BF0000102809300021092070210920602809177
:100C000000029091010284369105D9F483E290E0CC
:100C10000E94490788E290E00E94A10880910602A4
:100C200090910702843FB1E09B0759F054F085E6AC
:100C300090E09093010280930002109207021092BC
:100C4000060280910002909101028536910509F01B
:100C5000B0CD80E090E00E94490780E090E00E94E3
:100C6000A1088BE091E0FC0120818BE091E02F7ED8
:100C7000DC012C939ECD1F920F920FB60F92112480
:100C80000BB60F922F938F939F93EF93FF93CF9376
:100C9000DF93CDB7DEB787E490E0FC018081882345
:100CA000C9F488E490E0FC018081882399F48BE00A
:100CB00091E0FC0120818BE091E02E7FFC012083FC
:100CC0008BE091E0FC0120818BE091E02D7FFC0125
:100CD000208331C087E490E0FC018081882399F073
:100CE0008BE091E0FC0120818BE091E02D7FFC0105
:100CF00020838BE091E0FC0120818BE091E021607A
:100D0000FC01208318C088E490E0FC0180818823E6
:100D100091F08BE091E0FC0120818BE091E02E7F4F
:100D2000FC0120838BE091E0FC0120818BE091E0CD
:100D30002260FC0120830000DF91CF91FF91EF91B1
:100D40009F918F912F910F900BBE0F900FBE0F9020
:100D50001F9018951F920F920FB60F9211240BB689
:100D60000F922F938F939F93EF93FF93CF93DF93E4
:100D7000CDB7DEB787E490E0FC0180818F3F49F07A
:100D80008BE091E0FC0120818BE091E02E7FFC0163
:100D900020830000DF91CF91FF91EF919F918F9180
:100DA0002F910F900BBE0F900FBE0F901F901895B4
:100DB0001F920F920FB60F9211240BB60F922F9322
:100DC0008F939F93EF93FF93CF93DF93CDB7DEB7CE
:100DD00088E490E0FC0180818F3F49F08BE091E056
:100DE000FC0120818BE091E02D7FFC01208300003D
:100DF000DF91CF91FF91EF919F918F912F910F9064
:100E00000BBE0F900FBE0F901F901895CF93DF93DE
:100E1000CDB7DEB78AE091E0FC0120818AE091E065
:100E20002160FC0120838AE091E0FC0120818AE0BE
:100E300091E02260FC0120838BE091E0FC012081A5
:100E40008BE091E02E7FFC0120838BE091E0FC01A0
:100E500020818BE091E02D7FFC01208384E490E0F1
:100E6000FC01108285E490E023E0FC01208387E40C
:100E700090E0FC01108288E490E0FC0110828EE694
:100E800090E027E0FC01208378940000DF91CF916F
:100E90000895CF93DF930F92CDB7DEB78983898111
:100EA0008C39E4F18981843609F0C4F5898188237D
:100EB000DCF088E490E0FC0110828981082E000CAF
:100EC000990B2FEF289FA001299F500D112424E694
:100ED00030E0CA01B9010E94EB08CB019C0187E414
:100EE00090E0FC0120831AC087E490E0FC011082AE
:100EF0008981082E000C990B2FEF289FA001299FB4
:100F0000500D11242CE93FEFCA01B9010E94EB08F2
:100F1000CB019C0188E490E0FC01208300000F904D
:100F2000DF91CF9108951F920F920FB60F92112467
:100F30000BB60F922F938F939F93EF93FF93CF93C3
:100F4000DF93CDB7DEB783EB90E0FC01808188238F
:100F5000C9F484EB90E0FC018081882399F48BE054
:100F600091E0FC0120818BE091E02B7FFC0120834C
:100F70008BE091E0FC0120818BE091E0277FFC0178
:100F8000208331C083EB90E0FC018081882399F0BD
:100F90008BE091E0FC0120818BE091E0277FFC0158
:100FA00020838BE091E0FC0120818BE091E02460C4
:100FB000FC01208318C084EB90E0FC018081882331
:100FC00091F08BE091E0FC0120818BE091E02B7FA0
:100FD000FC0120838BE091E0FC0120818BE091E01B
:100FE0002860FC0120830000DF91CF91FF91EF91F9
:100FF0009F918F912F910F900BBE0F900FBE0F906E
:101000001F9018951F920F920FB60F9211240BB6D6
:101010000F922F938F939F93EF93FF93CF93DF9331
:10102000CDB7DEB783EB90E0FC0180818F3F49F0C4
:101030008BE091E0FC0120818BE091E02B7FFC01B3
:1010400020830000DF91CF91FF91EF919F918F91CD
:101050002F910F900BBE0F900FBE0F901F90189501
:101060001F920F920FB60F9211240BB60F922F936F
:101070008F939F93EF93FF93CF93DF93CDB7DEB71B
:1010800084EB90E0FC0180818F3F49F08BE091E0A0
:10109000FC0120818BE091E0277FFC012083000090
:1010A000DF91CF91FF91EF919F918F912F910F90B1
:1010B0000BBE0F900FBE0F901F901895CF93DF932C
:1010C000CDB7DEB78AE091E0FC0120818AE091E0B3
:1010D0002460FC0120838AE091E0FC0120818AE009
:1010E00091E02860FC0120838BE091E0FC012081ED
:1010F0008BE091E02B7FFC0120838BE091E0FC01F1
:1011000020818BE091E0277FFC01208380EB90E041
:10111000FC01108281EB90E023E0FC01208383EB53
:1011200090E0FC01108284EB90E0FC01108280E7EB
:1011300090E027E0FC01208378940000DF91CF91BC
:101140000895CF93DF930F92CDB7DEB7898389815E
:101150008C39E4F18981843609F0C4F589818823CA
:10116000DCF084EB90E0FC0110828981082E000CF9
:10117000990B2FEF289FA001299F500D112424E6E1
:1011800030E0CA01B9010E94EB08CB019C0183EB5E
:1011900090E0FC0120831AC083EB90E0FC011082F8
:1011A0008981082E000C990B2FEF289FA001299F01
:1011B000500D11242CE93FEFCA01B9010E94EB0840
:1011C000CB019C0184EB90E0FC01208300000F9098
:1011D000DF91CF91089597FB072E16F4009407D066
:1011E00077FD09D00E94FF0807FC05D03EF49095DA
:1011F00081959F4F0895709561957F4F0895AA1B23
:10120000BB1B51E107C0AA1FBB1FA617B70710F0F1
:10121000A61BB70B881F991F5A95A9F78095909523
:10122000BC01CD0108950E94470908F481E00895AA
:101230000E94730988F09F5798F0B92F9927B751EA
:10124000B0F0E1F0660F771F881F991F1AF0BA956A
:10125000C9F714C0B13091F00E948D09B1E0089532
:101260000C948D09672F782F8827B85F39F0B93F24
:10127000CCF3869577956795B395D9F73EF490951D
:101280008095709561957F4F8F4F9F4F0895990F6F
:101290000008550FAA0BE0E8FEEF16161706E80740
:1012A000F907C0F012161306E407F50798F0621B61
:1012B000730B840B950B39F40A2661F0232B242B36
:1012C000252B21F408950A2609F4A140A6958FEF55
:1012D000811D811D089557FD9058440F551F59F0E9
:1012E0005F3F71F04795880F97FB991F61F09F3F13
:1012F00079F087950895121613061406551FF2CF3C
:101300004695F1DF08C0161617061806991FF1CF8B
:1013100086957105610508940895E894BB276627B2
:101320007727CB0197F908950E94470908F48FEFBA
:1013300008950E94AC090C941D0A0E940F0A38F00F
:101340000E94160A20F0952311F00C94060A0C94C2
:101350000C0A11240C948E090E946B0970F3959F5E
:10136000C1F3950F50E0551F629FF001729FBB279C
:10137000F00DB11D639FAA27F00DB11DAA1F649F38
:101380006627B00DA11D661F829F2227B00DA11DEB
:10139000621F739FB00DA11D621F839FA00D611D71
:1013A000221F749F3327A00D611D231F849F600D92
:1013B000211D822F762F6A2F11249F5750409AF0BB
:1013C000F1F088234AF0EE0FFF1FBB1F661F771F47
:1013D000881F91505040A9F79E3F510580F00C9412
:1013E000060A0C948E095F3FE4F3983ED4F3869589
:1013F00077956795B795F795E7959F5FC1F7FE2BB2
:10140000880F911D9695879597F9089597F99F678D
:1014100080E870E060E008959FEF80EC089500247C
:101420000A941616170618060906089500240A9449
:1014300012161306140605060895092E0394000CCF
:1014400011F4882352F0BB0F40F4BF2B11F460FF5E
:1014500004C06F5F7F4F8F4F9F4F0895F894FFCF69
:061460000100070002007C
:00000001FF
